:1000000000800020BD0100007DAC010035AC010086
:1000100035AC010035AC010035AC010035AC010058
:1000200035AC010035AC010035AC01007DAC010000
:100030007DAC010035AC0100D50C02004512020078
:100040007DAC01007DAC01007DAC01007DAC010008
:100050007DAC01007DAC01007DAC01007DAC0100F8
:100060007DAC01007DAC01007DAC01007DAC0100E8
:100070007DAC01007DAC01007DAC01007DAC0100D8
:100080007DAC01007DAC01007DAC01007DAC0100C8
:100090007DAC01007DAC01007DAC01007DAC0100B8
:1000A00085300200913002007DAC01007DAC010082
:1000B0007DAC01007DAC01007DAC01007DAC010098
:1000C0007DAC01007DAC01007DAC01007DAC010088
:1000D0007DAC01007DAC01007DAC01007DAC010078
:1000E0007DAC01007DAC01007DAC01007DAC010068
:1000F0007DAC0100D1D901007DAC0100BDE401005F
:100100007DAC010059EB01007DAC01007DAC01002C
:100110007DAC01007DAC01007DAC01007DAC010037
:100120007DAC0100E9270000412900007DAC010001
:100130007DAC01007DAC01007DAC01007DAC010017
:100140007DAC01007DAC01007DAC01007DAC010007
:10015000C5130200D9130200ED13020001140200BE
:10016000715402008DEF01007DAC01007DAC0100F7
:100170007DAC01007DAC01007DAC01007DAC0100D7
:100180007DAC01007DAC01007DAC01007DAC0100C7
:100190007DAC01007DAC01007DAC01007DAC0100B7
:1001A0007DAC01007DAC01007DAC01007DAC0100A7
:1001B0007DAC01007DAC0100F1060200564B4CF213
:1001C000205210B51A804DF628121A8000BF00BFC9
:1001D0001AF058FD514B4FF010621A60504A9A6065
:1001E000504ADA60504A136813F4807304D14F49BF
:1001F0000B604FF4A85313604D4B1A78110703D5C9
:100200001A7842F008021A704A4B4B492A221A7097
:100210004A4A4B4B8B4204D252F8040F43F8040B6A
:10022000F8E7484B484900228B4202D243F8042B9E
:10023000FAE74649464A002352F8230041F82300D2
:1002400001336F2BF8D1434B434A802103F8011B44
:100250009342FBD1414B3D4A1A60414B8A221A70AE
:10026000A3F5805324225A70A0221A709A7992071B
:10027000FCD59A79D406FCD43A4A937903F00C035E
:10028000082B384BF9D103221A7140225A719A79FE
:100290009006FCD5334A9179324B4906FBD5324A58
:1002A000324911600221516020221A709A7902F0BD
:1002B0000C020C2AFAD12E4B2E4A1A602E4B2F4AD2
:1002C0001A6000225A60072243F8042C2C4AC3F813
:1002D0000C2D62B61BF076F8144B1B68DA0705D5B7
:1002E00028481BF027F8284B284A1A60284B1B780F
:1002F0005B0609D5244C254B22689A4204D121483B
:100300001BF018F8002323601AF0C2FC2AF026FF25
:1003100021F080F8FEE700BF0E2005403080044049
:10032000823F04000100002B10D0034014D0034092
:1003300002D0074000E00740009EFF1F1087030027
:100340002087FF1F009EFF1F8C3900200082FF1FA7
:100350000000000000E400E05FE400E008ED00E0E1
:100360000050064000400640448004400000030165
:1003700004800440C010050014E000E0FF76010096
:100380000000202000DD68501CE00340A5C3945A03
:1003900000F00740FFFFFFFFFFFFFFFFFFFFFFFF32
:1003A000FFFFFFFFFFFFFFFFFFFFFFFFFFFFFFFF5D
:1003B000FFFFFFFFFFFFFFFFFFFFFFFFFFFFFFFF4D
:1003C000FFFFFFFFFFFFFFFFFFFFFFFFFFFFFFFF3D
:1003D000FFFFFFFFFFFFFFFFFFFFFFFFFFFFFFFF2D
:1003E000FFFFFFFFFFFFFFFFFFFFFFFFFFFFFFFF1D
:1003F000FFFFFFFFFFFFFFFFFFFFFFFFFFFFFFFF0D
:10040000FFFFFFFFFFFFFFFFFFFFFFFFDEF9FFFF23
:1004100010B5054C237833B9044B13B10448AFF33E
:1004200000800123237010BD009EFF1F000000000C
:100430000C870300084B10B51BB108490848AFF3FF
:1004400000800848036803B910BD074B002BFBD0A0
:10045000BDE81040184700BF00000000049EFF1FC9
:100460000C870300009EFF1F0000000030B4084905
:10047000016000224FF07E554FF06C540021456022
:10048000446180F824108260C260026130BC704711
:10049000CDCCCC3D2DE9F04F044693B008464949F8
:1004A00016461D462AF08AFA4649814630462AF009
:1004B00085FA4449824628462AF080FAA668E5680B
:1004C00027698346494606F100402AF077FA294613
:1004D000804650462AF072FA014640462AF064F9F6
:1004E0003946804658462AF069FA014640462AF0C5
:1004F0005BF94FF07C512AF061FAD4F80480039044
:10050000414648462AF05AFA2946009058462AF0B1
:1005100055FA009B014618462AF048F939460090E2
:1005200050462AF04BFA009B014618462AF03CF947
:100530004FF07C512AF042FA4146049050462AF08E
:100540003DFA3146009058462AF038FA009B0146A1
:1005500018462AF029F93946009048462AF02EFA22
:10056000009B014618462AF021F94FF07C512AF0F1
:1005700025FA4146059058462AF020FA314683462E
:1005800050462AF01BFA014658462AF00FF9294630
:10059000824648462AF012FA014650462AF004F9EB
:1005A0004FF07C512AF00AFA002106901C982AF09C
:1005B00099FB48B100211D982AF094FB002840F0D7
:1005C0007E8201E039FA8E3C1C9908462AF0F6F941
:1005D0001D99814608462AF0F1F9014648462AF05D
:1005E000E5F81E99814608462AF0E8F90146484692
:1005F0002AF0DCF881464FEA6909C9F1BE494FF09B
:100600007C5109F55D192AF0D9F909F5CE5909F19E
:100610001F09494682462AF0D1F949462AF0CEF907
:1006200001464FF07F502AF0BFF849462AF0C6F93C
:100630008146014650462AF0C1F949462AF0BEF9E2
:1006400001464FF07F502AF0AFF849462AF0B6F93C
:10065000814601461C982AF0B1F9494600901D9840
:100660002AF0ACF9494601901E982AF0A7F94146B4
:10067000099040462AF09AF831460A9030462AF00E
:1006800095F829460B9028462AF090F839460C90A8
:1006900038462AF08BF84FF081410D9040462AF001
:1006A0008DF94FF08141824630462AF087F94FF0AC
:1006B0008141814628462AF081F94FF0824110900D
:1006C00030462AF07BF94FF08241834628462AF0D3
:1006D00075F931460E9030462AF070F9294602909D
:1006E00028462AF06BF93946079038462AF066F911
:1006F00007990F9050462AF061F90C9908900098DC
:100700002AF05CF9089B014618462AF04FF8029936
:10071000089050462AF052F9089B014618462AF0E4
:1007200045F80B99824601982AF048F9014650464F
:100730002AF03AF84146089040462AF03FF94FF037
:1007400081412AF03BF90F99824648462AF036F952
:100750000D99119000982AF031F9119B0146184625
:100760002AF022F85146119030462AF027F9119BC1
:10077000014618462AF01AF80A99119001982AF0B1
:100780001DF9119B014618462AF00EF849462AF039
:100790000BF80299119058462AF010F9119B014666
:1007A00018462AF003F80799119058462AF006F9DE
:1007B000119B0146184629F0F9FF494683460998DE
:1007C0002AF0FCF80146584629F0F0FF51461190F6
:1007D00028462AF0F3F80A99814600982AF0EEF8A4
:1007E0000146484629F0E2FFDDF840B00F99814606
:1007F00058462AF0E3F80146484629F0D7FF0D99FC
:10080000814601982AF0DAF80146484629F0CCFFE3
:10081000594629F0C9FF029981460E982AF0CEF870
:100820000146484629F0C2FFDDF81CA0814651462A
:100830000E982AF0C3F80146484629F0B7FF5946FA
:10084000814609982AF0BAF80146484629F0AEFFD9
:100850004FF08141834602982AF0B0F839462AF0D9
:10086000ADF80B99814600982AF0A8F80146484651
:1008700029F09AFF4FF08141814650462AF09EF8B8
:1008800039462AF09BF80146484629F08FFF0C991B
:10089000814601982AF092F80146484629F084FFE3
:1008A000089B0090194618462AF088F8119B01937E
:1008B0001946814618462AF081F80146484629F033
:1008C00075FF5946814658462AF078F80146484651
:1008D00029F06CFF009A8146114610462AF06EF806
:1008E0000146484629F062FF81464FEA6909C9F18D
:1008F000BE494FF07C5109F55D192AF05FF809F502
:10090000CE5909F11F09494682462AF057F849464F
:100910002AF054F801464FF07F5029F045FF494630
:100920002AF04CF88146014650462AF047F84946DD
:100930002AF044F801464FF07F5029F035FF494630
:100940002AF03CF8D4F800908246014608982AF034
:1009500035F849462AF032F80146039829F024FF79
:10096000019B0390514618462AF028F849462AF080
:1009700025F80146049829F017FF5146049058467F
:100980002AF01CF849462AF019F80146059829F082
:100990000BFF009A0590514610462AF00FF8494681
:1009A0002AF00CF80146069829F0FEFE0690D4F8CD
:1009B0001490039849462AF001F8414629F0F6FEC2
:1009C00049468046049829F0F9FF314629F0EEFEA9
:1009D00049460646059829F0F1FF294629F0E6FE2A
:1009E00049468246069829F0E9FF394629F0DEFE9D
:1009F00041460746404629F0E1FF3146054630466C
:100A000029F0DCFF0146284629F0D0FE5146054674
:100A1000504629F0D3FF0146284629F0C7FE394643
:100A20000546384629F0CAFF0146284629F0BEFE91
:100A300005466D10C5F1BE454FF07C5105F55D15BD
:100A400029F0BCFF05F5CE551F352946814629F012
:100A5000B5FF294629F0B2FF01464FF07F5029F03B
:100A6000A3FE294629F0AAFF05460146484629F07B
:100A7000A5FF294629F0A2FF01464FF07F5029F03B
:100A800093FE294629F09AFF05460146404629F083
:100A900095FF29466060304629F090FF2946A06006
:100AA000504629F08BFF2946E060384629F086FF42
:100AB0000023206184F8243013B0BDE8F08F0021BA
:100AC0001E982AF00FF900283FF47EAD6FE700BFB3
:100AD0002DE9F04F9FB00E46289C0594299C069462
:100AE0002A9C0B942C9CDDF8AC90029427462D9CFC
:100AF000019000214846A046039415461C462AF062
:100B0000F1F830B1002138462AF0ECF8002840F026
:100B100065853046494929F051FF4849064628462F
:100B200029F04CFF45490746204629F047FF019A26
:100B3000D2F808A0D2F80CB01469804631460AF108
:100B4000004029F03BFF59460546384629F036FF5C
:100B50000146284629F028FE21460546404629F050
:100B60002DFF0146284629F01FFE4FF07C5129F049
:100B700025FF01990C904D683046294629F01EFF4B
:100B800059460490404629F019FF049B0146184637
:100B900029F00CFE21460490384629F00FFF049BF3
:100BA0000146184629F000FE4FF07C5129F006FF5F
:100BB00029460D90384629F001FF514604904046E1
:100BC00029F0FCFE049B0146184629F0EDFD214664
:100BD0000490304629F0F2FE049B0146184629F0A5
:100BE000E5FD4FF07C5129F0E9FE29460E90404684
:100BF00029F0E4FE51468046384629F0DFFE0146E2
:100C0000404629F0D3FD59460746304629F0D6FE26
:100C10000146384629F0C8FD4FF07C5129F0CEFE40
:100C200000210F9005982AF05DF848B10021069840
:100C30002AF058F8002840F0C88401E039FA8E3CC8
:100C4000059B1946184629F0B9FE069B064619462B
:100C5000184629F0B3FE0146304629F0A7FD0B9B4C
:100C600006461946184629F0A9FE0146304629F0E5
:100C70009DFD06467610C6F1BE464FF07C5106F546
:100C80005D1629F09BFE06F5CE561F363146074607
:100C900029F094FE314629F091FE01464FF07F5035
:100CA00029F082FD314629F089FE06460146384684
:100CB00029F084FE314629F081FE01464FF07F5035
:100CC00029F072FD314629F079FE494610904846D8
:100CD00029F074FE029B06461946184629F06EFE5E
:100CE0000146304629F062FD039B06461946184628
:100CF00029F064FE0146304629F058FD064676107C
:100D0000C6F1BE464FF07C5106F55D1629F056FE41
:100D100006F5CE561F363146074629F04FFE3146BE
:100D200029F04CFE01464FF07F5029F03DFD314641
:100D300029F044FE06460146384629F03FFE31467A
:100D400029F03CFE01464FF07F5029F02DFD314641
:100D500029F034FE06460146484629F02FFE31466A
:100D60008046029829F02AFE31460746039829F06A
:100D700025FE29468146284629F018FD06460146EB
:100D8000404629F01BFE31461290384629F016FEE7
:100D9000314613904846119629F010FE51460646FA
:100DA000504629F003FD014607904046CDF80C80DF
:100DB00029F004FE59461490584629F0F7FC2146C4
:100DC0008046204629F0F2FC11991590584629F0EA
:100DD000F5FD414617902046CDF8208029F0EEFD24
:100DE00029461890284629F0E9FD294680465046B4
:100DF00029F0E4FD29460A90584629F0DFFD2946EE
:100E00001690204629F0DAFD51461990504629F0F7
:100E1000D5FD59460490504629F0D0FD21461A9040
:100E2000504629F0CBFD59460990584629F0C6FD99
:100E300021460290584629F0C1FD21461B902046CC
:100E400029F0BCFD41460546039829F0B7FD1399EA
:100E50001C90204629F0B2FD1C9B0146184629F043
:100E6000A3FC31461C90584629F0A8FD1C9B014666
:100E7000184629F09BFC04991C90039829F09EFDCC
:100E80001C9B0146184629F091FC07991C90384696
:100E900029F094FD594629F091FD1C9B0146184606
:100EA00029F084FC07991C90484629F087FD2146CB
:100EB00029F084FD1C9B0146184629F077FC029915
:100EC0001C90039829F07AFD1C9B0146184629F0D6
:100ED0006BFC29461C90039829F070FD1C9B014671
:100EE000184629F061FC12991D90204629F066FDF4
:100EF00041461C90384629F061FD1C9A0146104677
:100F000029F054FC31461C90504629F057FD1C9A9C
:100F10000146104629F048FC14990646584629F027
:100F20004DFD0146304629F041FC049906463846FD
:100F300029F044FD0146304629F036FC0299064668
:100F4000384629F03BFD0146304629F02FFC089930
:100F50000646484629F032FD214629F02FFD01467C
:100F6000304629F023FC29460446384629F026FD60
:100F70000146204629F018FC1D9B064619461846D6
:100F800029F01CFD31460446304629F017FD014684
:100F9000204629F00BFC24F039FF019AD2F80CB05E
:100FA0001469D2F808A0129A0646594602F1004088
:100FB00029F004FD51461290139829F0FFFC129B72
:100FC0000146184629F0F2FB41461290484629F0A6
:100FD000F5FC129B0146184629F0E8FB21468046A5
:100FE000149829F0EBFC0146404629F0DFFB0499F8
:100FF0008046484629F0E2FC0146404629F0D4FBF1
:1010000008998046384629F0D9FC214629F0D6FCBB
:101010000146404629F0CAFB02998046484629F01D
:10102000CDFC0146404629F0BFFB29468046484694
:1010300029F0C4FC0146404629F0B8FB0146804631
:1010400029F0B4FB099A14901146104629F0AEFB22
:10105000179929F0A9FB10991290059829F0AEFC78
:10106000129B0146184629F09FFBDDF828E0059009
:101070007146704629F09AFB189929F097FB109950
:101080001290069829F09AFC129B0146184629F006
:101090008BFB41460690584629F090FC0299179028
:1010A0004FF07C5029F080FB294629F07DFB31462A
:1010B00029F084FC16990546099829F075FB4146EC
:1010C00029F07CFC0146284629F070FB039929F0A1
:1010D0006BFB41460390504629F070FC199918901B
:1010E0001A9829F061FB314629F068FC1B990546E6
:1010F0000A9829F05BFB414629F060FC014628462E
:1011000029F054FB394629F04FFB59460A903046E6
:1011100029F054FC049907464FF07C5029F044FB19
:10112000029929F041FB414629F048FC09990546FE
:10113000169829F03BFB314629F040FC0146284631
:1011400029F034FB494629F02FFB089A059981467E
:1011500002F1004029F032FC06990546079829F073
:101160002DFC0146284629F021FB039905461798D6
:1011700029F024FC06F1004201462846139229F08A
:1011800013FB13990546204629F018FC189929F0FD
:101190000DFB0A9929F012FC0146284629F006FBAE
:1011A000494605463846CDF8249029F007FC01460B
:1011B000284629F0FBFA04991290084629F0F6FA1D
:1011C00001464FF07E5029F0EFFA02990546084695
:1011D00029F0ECFA0146284629F0E6FA109905466E
:1011E0000B9829F0EBFB0146284629F0DDFA414631
:1011F0000290204629F0E2FB019B5D68814629466A
:10120000404629F0DBFB05990490159829F0D6FBA0
:1012100006998046119829F0D1FB0146404629F0F5
:10122000C5FA4FF081418046504629F0C7FB02992C
:1012300029F0C4FB0146404629F0B6FA49468046EB
:10124000039829F0BBFB0146404629F0AFFA049908
:101250008046384629F0AAFA0A9929F0AFFB0146E0
:10126000404629F0A3FA21460746304629F0A6FB5E
:1012700014998046504629F0A1FB0146404629F0CA
:1012800093FA099929F09AFB0146384629F08EFA1B
:1012900031461090304629F089FA514600F1004855
:1012A000304629F08BFB119A0599074602F1004060
:1012B00029F084FB06990B90159829F07FFB0B9A77
:1012C0000146104629F072FA4FF081410B905846C2
:1012D00029F074FB029929F071FB0B9A0146104624
:1012E00029F062FA41460290584629F067FB0499BA
:1012F00029F05AFA039929F061FB029A0146104637
:1013000029F054FA39460290484629F04FFA0A99D2
:1013100029F054FB029A0146104629F047FA294663
:101320008146304629F04AFB14990646584629F072
:1013300045FB0146304629F037FA099929F03EFB72
:101340000146484629F032FA05990646079829F0E1
:1013500035FB06998146089829F030FB014648463E
:1013600029F024FA41468146204629F027FB1899A6
:1013700029F01CFA039929F021FB0146484629F07F
:1013800015FA29468046139829F018FB179929F079
:101390000DFA0A9929F012FB0146404629F006FA97
:1013A00039468046099829F009FB0146404629F054
:1013B000FDF9129A81461146104629F0FFFA109B5A
:1013C000029319460746184629F0F8FA01463846AE
:1013D00029F0ECF931460746304629F0EFFA01468C
:1013E000384629F0E3F949460746484629F0E6FA27
:1013F0000146384629F0DAF907467F10C7F1BE47A3
:101400004FF07C5107F55D1729F0D8FA07F5CE5754
:101410001F373946804629F0D1FA394629F0CEFAED
:1014200001464FF07F5029F0BFF9394629F0C6FA3E
:1014300007460146404629F0C1FA394629F0BEFA6E
:1014400001464FF07F5029F0AFF9394629F0B6FA3E
:10145000019B1F6880460146129829F0AFFA394671
:1014600029F0ACFA01460C9829F09EF90C90029BE9
:101470004146184629F0A2FA394629F09FFA01465A
:101480000D9829F091F941460D90304629F096FAD1
:10149000394629F093FA01460E9829F085F941461C
:1014A0000E90484629F08AFA394629F087FA014613
:1014B0000F9829F079F90F90019B0C985E693146DD
:1014C00029F07CFA294629F071F9314605460D9834
:1014D00029F074FA514629F069F9314607460E9809
:1014E00029F06CFA594629F061F9314680460F9887
:1014F00029F064FA214629F059F92946064628467A
:1015000029F05CFA39460446384629F057FA014674
:10151000204629F04BF941460446404629F04EFA50
:101520000146204629F042F931460446304629F06A
:1015300045FA0146204629F039F904466410C4F101
:10154000BE444FF07C5104F55D1429F037FA04F5E0
:10155000CE541F342146814629F030FA214629F025
:101560002DFA01464FF07F5029F01EF9214629F04F
:1015700025FA04460146484629F020FA214629F07A
:101580001DFA01464FF07F5029F00EF9214629F04F
:1015900015FA04460146284629F010FA019D214615
:1015A0006860384629F00AFA2146A860404629F0CA
:1015B00005FA2146E860304629F000FA0023286148
:1015C00085F824301FB0BDE8F08F00210B9829F07A
:1015D00089FB00287FF470AFFFF732BB0021404643
:1015E00029F080FB00283FF494AA0B9B2A93069BCA
:1015F00029930198059B28932A46234631461FB01C
:10160000BDE8F04FFEF746BF38B54FF07C510446B9
:1016100029F0D4F9114BA3EB64042146054629F0C7
:10162000CDF9214629F0CAF901464FF07F5029F043
:10163000BBF8214629F0C2F904460146284629F0A4
:10164000BDF9214629F0BAF901464FF07F5029F043
:10165000ABF8214629F0B2F938BD00BFDF59375F3A
:10166000F8B58668C56804463146304629F0A6F9C3
:1016700001464FF07C5029F097F829460746284646
:1016800029F09CF90146384629F08EF86168074632
:10169000304629F093F921690646284629F08EF94B
:1016A0000146304629F082F8394624F0ADFB216925
:1016B000A061A06829F082F9E1680546606829F018
:1016C0007DF90146284629F06FF84FF0404129F096
:1016D00075F924F047FBE668E0613146304629F0B1
:1016E0006DF901464FF07C5029F05EF825690746F8
:1016F0002946284629F062F90146384629F054F86F
:10170000A1680746304629F059F96168064628461F
:1017100029F054F90146304629F048F8394624F0BA
:1017200073FB012384F824302062F8BDFFFFFFFF24
:101730002DE9F0430446BBB0C06915461E468846F5
:1017400020F02CFDE069036829461B689847E06992
:101750000023427B01690093012320F039FE0746F4
:10176000F8B1364B02900FCB04AC84E80F007B1E1F
:10177000032BA8BF03233AAA02EB8303C82153F823
:10178000D82C03928DE86000434608A82C4A2AF022
:101790006BFB08A92B4817F069F938463BB0BDE848
:1017A000F083E369284D597B18690197012342466C
:1017B0000093334621F00AF8DDF80881DFF88C90B9
:1017C0004644B0451ED1214EE06903681B69AB4217
:1017D00014D10269D2F83831D2F83401181A00282D
:1017E000DBD0E06903685B69B34209D1006921F08D
:1017F0009FF8E06903681B69AB42EAD09847EEE7BF
:101800009847E1E7E06903681B69AB4212D10269BE
:10181000D2F83831D2F83401181A0028BDD0E06966
:1018200003685B694B4507D1006921F081F808F82E
:10183000010BC6E79847F0E79847F8E7C0160300A2
:10184000D0160300283200201D2400002D240000A3
:1018500070B5044682B0C06916461D4620F09EFC55
:10186000E069036831461B689847E06902682946C9
:1018700013689847E0690023427B016900930123C4
:1018800020F0A6FD02B070BD002210B40024046256
:101890004462017042808280C280C26110BC704785
:1018A000C1617047F0B5C56987B004460E46002D8A
:1018B00037D021780096012375222046FFF738FFA4
:1018C000054670B93378683B092B0AD8DFE803F086
:1018D0000C0C09090909090905051C491C4817F0E0
:1018E000C5F8284607B0F0BD2178E06920F056FC25
:1018F000E06903686B211B689847E0690368002171
:101900001B689847E0690023427B0169009301232B
:1019100020F05EFD0F490E4817F0A8F8284607B0E2
:10192000F0BD0D490A4817F0A1F80C4B0C4A597B41
:10193000186903950127029501950095E3610492CA
:1019400005972B462A4620F04FF9B2E740170300CF
:10195000283200203017030008170300E838002061
:10196000A086010070B5C46986B00CB106B070BD28
:1019700005460B490B4817F079F80B4B0B4A597B7E
:10198000186903940126029401940094EB61049277
:1019900005962346224620F027F906B070BD00BF09
:1019A0000817030028320020E8380020A086010034
:1019B000F0B5C66987B004460D46002E3DD0182DFF
:1019C00039D8DFE805F03438383838383838303826
:1019D0003838383838382C383838383838380D00F6
:1019E0004FF0834323622178E06920F0D7FBE06960
:1019F00003681C211B689847E069036829461B6837
:101A00009847E0690023427B01690093012320F09D
:101A1000DFFC0A2007B0BDE8F0401BF007BB4FF029
:101A200082432362DFE74FF081432362DBE74FF01D
:101A300080432362D7E707B0F0BD0A490A4817F090
:101A400015F80A4B0A4A597B186903960127029632
:101A500001960096E361049205973346324620F0E2
:101A6000C3F8ACE70817030028320020E83800204C
:101A7000A086010030B5044685B00C21C06920F075
:101A80008DFBE06903680A211B689847E0690368D9
:101A900000211B689847E0690025427B0169009599
:101AA000012320F095FC0A201BF0C0FAE0690C210C
:101AB00020F074FBE06903680A211B689847E0691D
:101AC00003680F211B689847E0690123427B016985
:101AD000009520F07DFC0A201BF0A8FA03AB0093D0
:101AE0002046032310220C21FFF722FE9DF80C1044
:101AF0009DF80D209DF80E3084F8281084F82920D8
:101B000084F82A300249034816F0B0FF05B030BD12
:101B100050170300283200202DE9F041C56988B034
:101B200004460F46002D00F0D5800DF11C086B22F5
:101B30002178CDF8008001232046FFF7F9FD9DF8BC
:101B40001C502178E06905F08F058DF81C5020F0BD
:101B500025FBE06903686B211B689847E06903680F
:101B600029461B689847E0690025427B016900957A
:101B7000012320F02DFC6249624816F077FF0A200D
:101B80001BF054FA37222178CDF80080012320463B
:101B9000FFF7CEFD9DF81C602178E06946F0020653
:101BA0008DF81C6020F0FAFAE069036837211B68A1
:101BB0009847E069036831461B689847E06901234C
:101BC000427B0169009520F003FC4F494D4816F017
:101BD0004DFF0A201BF02AFAE0690C2120F0DEFA02
:101BE000E06903680A211B689847E0690368294691
:101BF0001B689847E0690123427B0169009520F04A
:101C0000E7FB0A201BF012FAE0690C2120F0C6FA6B
:101C1000E06903680A211B689847E06903680F219F
:101C20001B689847E0690123427B0169009520F019
:101C3000CFFB0A201BF0FAF9CDF800800323102215
:101C40000C212046FFF774FD9DF81D209DF81E30E5
:101C50009DF81C1084F8292084F82A3084F8281074
:101C600028482A4916F002FFE0690C2120F096FA74
:101C7000E06903680A211B689847E0690368294600
:101C80001B689847E0690123427B0169009520F0B9
:101C90009FFB0A201BF0CAF9E0690C2120F07EFAB4
:101CA000E06903680A211B689847E06903683946C0
:101CB0001B689847E0690123427B0169009520F089
:101CC00087FB0A201BF0B2F90A201BF0AFF908B01D
:101CD000BDE8F0810E490B4816F0C8FE0D4B0E4AC8
:101CE000597B186903950126029501950095E361DA
:101CF000049205962B462A461FF076FF15E700BF93
:101D00007C170300283200209C17030050170300A3
:101D100008170300E8380020A086010030B504460B
:101D200083B00D46C0690C2120F038FAE0690368E1
:101D30000A211B689847E069036829461B68984791
:101D4000E0690023427B01690093012320F040FBFE
:101D50000A2003B0BDE830401BF068B930B585B04B
:101D60000DF10F036B220178009301230446FFF766
:101D7000DFFC9DF80F502178E06905F08F058DF8A4
:101D80000F5020F00BFAE06903686B211B6898473D
:101D9000E069036829461B689847E0690023427B95
:101DA00001690093012320F013FB0449044816F055
:101DB0005DFE0A201BF03AF905B030BD7C17030028
:101DC0002832002030B585B00DF10F03372201789D
:101DD000009301230446FFF7ABFC9DF80F502178D8
:101DE000E06945F002058DF80F5020F0D7F9E06961
:101DF000036837211B689847E069036829461B6818
:101E00009847E0690023427B01690093012320F099
:101E1000DFFA0449044816F029FE0A201BF006F9EF
:101E200005B030BD9C170300283200202DE9F8438F
:101E3000044690F8290028F069FD4FF0864128F00B
:101E4000B3FC28F011F900223B4B28F061F9002285
:101E50004FF07E5328F05CF90022384B27F0A6FFA4
:101E6000A37D0646E07D43EA002000B20F4628F03D
:101E700051FD28F0F9F802460B463046394628F065
:101E800047F928F03DFC0546B4F9040028F042FD6E
:101E90000146284628F08AFC28F0E6F8064694F821
:101EA00028000F4628F032FD4FF0864128F07CFCD8
:101EB00028F0DAF80022204B28F02AF900224FF00F
:101EC0007E5328F025F900221C4B27F06FFF237D5D
:101ED0008046607D43EA002000B2894628F01AFD62
:101EE00028F0C2F802460B464046494628F010F951
:101EF00028F006FC0546B4F9020028F00BFD014667
:101F0000284628F053FC28F0AFF832463B4623F031
:101F100059FC00220A4B28F0FBF805A3D3E9002363
:101F200028F020FA28F0ECFBBDE8F883AFF300803E
:101F300000000000FA2109400000E03F0000F03FEF
:101F40000080664000B583B000F1140300930322C3
:101F500007230C21FFF7ECFB03B05DF804FB00BF87
:101F600002440144137D087D43EA002000B270471B
:101F700070B50646084628F0C9FC4FF0864128F0A7
:101F800013FC28F071F800220D4B28F0C1F8002254
:101F90004FF07E5328F0BCF800220A4B27F006FFD2
:101FA000044630460D4628F0B5FC28F05DF80246A0
:101FB0000B462046294628F0ABF828F0A1FB70BD5F
:101FC0000000E03F0000F03FF8B5044690F828001C
:101FD00028F09CFC4FF0864128F0E6FB28F044F8FE
:101FE0000022144B28F094F800224FF07E5328F082
:101FF0008FF80022104B27F0D9FE237D0646607D26
:1020000043EA002000B20F4628F084FC28F02CF8A8
:1020100002460B463046394628F07AF828F070FB25
:102020000546B4F9020028F075FC0146284628F060
:10203000BDFBF8BD0000E03F0000F03FF8B50446EE
:1020400090F8290028F062FC4FF0864128F0ACFBA4
:1020500028F00AF80022144B28F05AF800224FF01A
:102060007E5328F055F80022104B27F09FFEA37DE9
:102070000646E07D43EA002000B20F4628F04AFC05
:1020800027F0F2FF02460B463046394628F040F86A
:1020900028F036FB0546B4F9040028F03BFC014665
:1020A000284628F083FBF8BD0000E03F0000F03F29
:1020B000F8B5044690F82A0028F028FC4FF0864135
:1020C00028F072FB27F0D0FF0022144B28F020F8F4
:1020D00000224FF07E5328F01BF80022104B27F00F
:1020E00065FE237E0646607E43EA002000B20F466E
:1020F00028F010FC27F0B8FF02460B463046394660
:1021000028F006F828F0FCFA0546B4F9060028F095
:1021100001FC0146284628F049FBF8BD0000E03FDD
:102120000000F03F00B5024683B012F8081B009291
:1021300006233B22FFF7FCFA03B05DF804FB00BF67
:1021400010B502440144137A0446087A43EA002099
:1021500000B2404228F0DEFB216A28F02FFC4FF04D
:10216000605128F02BFC10BD10B50446007A637A4C
:1021700043EA002000B2404228F0CCFB216A28F05C
:102180001DFC4FF0605128F019FC10BD10B504463D
:10219000807AE37A43EA002000B2404228F0BAFB9A
:1021A000216A28F00BFC4FF0605128F007FC10BDAD
:1021B00010B50446007B637B43EA002000B2404236
:1021C00028F0A8FB216A28F0F9FB4FF0605128F0B5
:1021D000F5FB10BD2DE9F8430446007A637A256AC1
:1021E00043EA002000B2404228F094FB294628F040
:1021F000E5FB4FF0605128F0E1FB27F035FFE37A73
:102200000646A07A43EA002000B240420F4628F07A
:1022100081FB294628F0D2FB4FF0605128F0CEFB1D
:1022200027F022FF637B8046207B43EA002000B238
:102230004042894628F06EFB294628F0BFFB4FF04C
:10224000605128F0BBFB27F00FFF424604460D46C5
:102250004B464046494627F05BFF3246804689465A
:102260003B463046394627F053FF02460B46404670
:10227000494627F09BFD224606460F462B46204640
:10228000294627F045FF02460B463046394627F0DF
:102290008DFD23F00BFD28F033FABDE8F88300BF75
:1022A000F0B5C66987B004460D46002E39D0182D0A
:1022B00035D8DFE805F031343434343434342E3456
:1022C0003434343434342B343434343434340D0032
:1022D0001E4B63622178E0691FF060FFE0690368CC
:1022E0001B211B689847E069036829461B689847CB
:1022F000E0690023427B01690093012320F068F824
:102300000A2007B0BDE8F0401AF090BE104B63629F
:10231000E0E7104B6362DDE70F4B6362DAE707B07B
:10232000F0BD0E490E4816F0A1FB0E4B0E4A597B2C
:10233000186903960127029601960096E3610492BC
:102340000597334632461FF04FFCB0E70000FA44D1
:1023500000007A440000FA4300007A4308170300A3
:1023600028320020E8380020A086010000B502468F
:1023700083B012F80E1B009206234322FFF7D8F910
:1023800003B05DF804FB00BF10B502440144937B29
:102390000446887B43EA002000B2404228F0BAFAA3
:1023A000616A28F00BFB4FF0605128F007FB10BD6D
:1023B00010B50446807BE37B43EA002000B2404234
:1023C00028F0A8FA616A28F0F9FA4FF0605128F075
:1023D000F5FA10BD10B50446007C637C43EA00208A
:1023E00000B2404228F096FA616A28F0E7FA4FF00E
:1023F000605128F0E3FA10BD10B50446807CE37C00
:1024000043EA002000B2404228F084FA616A28F0D2
:10241000D5FA4FF0605128F0D1FA10BD0369D3F816
:102420003801D3F83431C01A704700BF006920F07A
:102430007FBA00BFFFFFFFFF70B5294C2368002B58
:102440000ADB284D22682B689A422EDAEB68254A6F
:10245000013B002BEB6000DD70BD137C5169012B4B
:102460002DD022684FF47A738E5C93FBF6F62079B8
:102470001FF0BEF82268AB69207933F8121032469B
:102480001FF02EF8236801332360304627F0DAFD71
:1024900011A3D3E9002327F03BFE0022124B27F0C3
:1024A00061FF28F0E5F8E86070BD20791FF0A0F822
:1024B0004FF0FF33281D23601EF062FFC6E723683C
:1024C000E288CE5C61794EF6602302FB06F203FBE4
:1024D00001F393FBF2F6CAE79A9999999999014009
:1024E0000488FF1F1C9EFF1F00002440034A107138
:1024F00000B97047012119F069BA00BF0488FF1FB5
:1025000008B527F09FFD06A3D3E9002327F000FEBE
:1025100028F0D6F8044A054BD08001221A7408BD71
:1025200066666666666602400488FF1F1C9EFF1F83
:10253000F8B5404B98600A2807D8DFE800F02A3742
:1025400042484E545A60626B0C003B493B48BDE820
:10255000F84016F08BBA3A4A3A4C02F118061725A1
:102560000120E121A661626125602074D980364A8C
:102570003649374800251D601EF0B4FE6268FF2111
:102580002172002A55D0334B334813441B11195480
:10259000F8BD324A2B4C02F150064E250020042192
:1025A000A6616261256020745971E0E72C4A254CD0
:1025B00002F11C051B200021A561626120602174CD
:1025C000D5E7284A1F4C02F10C050C20F3E7264AF8
:1025D0001C4C02F110051020EDE7244A194C02F1C1
:1025E0000C050A20E7E7224A164C02F1380538208C
:1025F000E1E7204A134C02F114051420DBE71E4AE0
:10260000ECE71E4A0F4C02F10806092501204FF4A1
:102610008A71A7E71A4A0B4C02F1A0079F260125F1
:1026200004208C21A7616261266025745871D980CD
:102630009DE7F8BD0488FF1F5018030028320020D2
:10264000C48CFF1F1C9EFF1FFF520700392400008F
:10265000209EFF1F008FFCBF44E400E01088FF1F96
:10266000FC88FF1F5089FF1F7489FF1FA489FF1F6B
:10267000C489FF1F6C8AFF1FA88AFF1FC88AFF1F1B
:10268000E48AFF1F014B1868C00F70470488FF1FC2
:1026900000B50A4A0A481368916802689DB08DE83F
:1026A000060003A8074A642129F0DEFB03A90648B7
:1026B00016F0DCF91DB05DF804FB00BF0488FF1FB5
:1026C0001C9EFF1F681803002832002010B5044626
:1026D0001EF056FE204610BD30B4054B054A064993
:1026E000802400251C725D60181D30BC28F014BDCC
:1026F0001C9EFF1F0088FF1FCD2600000020704792
:102700000149024816F0B2B9DC1803002832002053
:10271000F0B5D5B019B1012915D055B0F0BD058C73
:10272000C48B818B428B038B0191009203952B4AC2
:10273000029415A8642129F097FB15A9284816F0E2
:1027400095F955B0F0BDC26C836CB0F93010B0F99A
:102750004070B0F92E60B0F93E50109102EB820249
:10276000520003EB8303B0F92C40B0F93C101292F5
:102770005B00B0F92AE01193B0F93A200F97B0F955
:1027800028700E96B0F938600D95B0F926500C946B
:10279000B0F936400B91B0F92410CDF828E0B0F82C
:1027A00042300992B0F934200594049108970796B5
:1027B00006950392B0F92240B0F93210B0F84420E7
:1027C00000920191074A029415A8FA2129F04CFBC6
:1027D00015A9034816F04AF955B0F0BDF8180300E2
:1027E000283200200C19030038B54D4C002104F1AB
:1027F000B00020F04FFEB4F85020D4F8443101323C
:10280000012BA4F8502082B268DD042B2FDC03F1E9
:10281000180154F82110088802EB50020A80013395
:102820000C2BC4F844313E4A2CDD92F84831002B81
:102830003BD03C4B3C4A1B68D4F8AC0092F82310C8
:1028400092F824201B1AE36400294DD0374B3849F5
:1028500093F8383051F83220022B4FF0010182F802
:10286000801058D9334B4FF400221A6038BD94F8C9
:10287000482192B104EB430201330C2B1085C4F8BC
:102880004431D6DC04EB83034FF0FF3293F874102D
:102890002948BDE8384020F051BD04EB4302013324
:1028A0000C2B1083C4F84431ECDD1F4A1D4B92F809
:1028B00024001E4A1E491B68D4F8A85092F83820FC
:1028C00051F830105B1B0120022AA36481F800013B
:1028D0001A4B1AD84FF480221A6038BD03F1180140
:1028E00054F821100A809AE7104B114993F83830B8
:1028F00051F83220022B4FF0010182F8001108D963
:102900000E4B4FF400221A6038BD4FF400221A60BB
:1029100038BD0A4BDEE7074B4FF480221A6038BD02
:10292000389EFF1FA435002010A8FF1F182F00207D
:10293000C878030044F00F40E89EFF1F48F00F40A6
:1029400038B54D4C012104F1B00020F0A3FDB4F8DE
:102950005220D4F844310132012BA4F8522082B223
:1029600068DD042B2FDC03F1180154F821100888CE
:1029700002EB50020A8001330C2BC4F844313E4A6A
:102980002CDD92F84831002B3BD03C4B3C4A1B6875
:10299000D4F8AC0092F8231092F824201B1AE364B8
:1029A00000294DD0374B384993F8383051F8322050
:1029B000022B4FF0010182F8801058D9334B4FF4AD
:1029C00000221A6038BD94F8482192B104EB43020A
:1029D00001330C2B1085C4F84431D6DC04EB83039F
:1029E0004FF0FF3293F874102948BDE8384020F0CA
:1029F000A5BC04EB430201330C2B1083C4F8443113
:102A0000ECDD1F4A1D4B92F824001E4A1E491B682C
:102A1000D4F8A85092F8382051F830105B1B0120F0
:102A2000022AA36481F800011A4B1AD84FF48022BD
:102A30001A6038BD03F1180154F821100A809AE792
:102A4000104B114993F8383051F83220022B4FF0D7
:102A5000010182F8001108D90E4B4FF400221A60D0
:102A600038BD4FF400221A6038BD0A4BDEE7074B31
:102A70004FF480221A6038BD389EFF1FA435002015
:102A800010A8FF1F182F0020C878030044F00F4043
:102A9000E89EFF1F48F00F4038B5044600F1B0052E
:102AA000D0F8340121F09EF9D4F8340121F08CFAE9
:102AB000D4F8380121F096F9D4F8380121F084FADD
:102AC000217DD4F8340121F00BFB217DD4F83801AD
:102AD00021F006FBD4F83401012121F093F9D4F858
:102AE0003801012121F08EF9D4F83401052121F0BB
:102AF000C1F9D4F83801052121F0BCF900211720D3
:102B000018F064FF0021222018F060FF002123202C
:102B100018F05CFF0021242018F058FF0021252028
:102B200018F054FF00211A2018F050FF00211B203C
:102B300018F04CFF00211C2018F048FF00211D2038
:102B400018F044FF00211E2018F040FF00211F2034
:102B500018F03CFF28464FF0FF32222120F03EFBC8
:102B60004FF0FF32E0832321284620F037FB4FF05F
:102B7000FF3220841721284620F030FBFF22A0835B
:102B80000D49D4F8340121F025FDD4F838010B4962
:102B9000FF2221F01FFD2046094A0A4915F024FEB4
:102BA00020460949094A15F01FFE21460848BDE89C
:102BB000384016F045BC00BFE9270000412900005D
:102BC000581903007C560300E81903009819030004
:102BD0002832002030B50446002590F87410C0F863
:102BE000445180F848514FF0FF3291B0B03020F09E
:102BF000A5FBB4F842301E48A16DB4F8502000681F
:102C0000C4F8A80001339142A4F8423003D0E5652E
:102C1000A26511B030BDE36D1649013381FB03108D
:102C2000D917C1EB6011642000FB1131E365002965
:102C3000EED1626DD4F84431009236210E4A02A8DA
:102C400029F012F902A90D4815F010FFFF220C49D6
:102C5000D4F8340121F0BEFCFF220A49D4F838012F
:102C600021F0B8FC636DB4F8502001336365CFE701
:102C7000A43500201F85EB51EC19030028320020F9
:102C8000E927000041290000D0F844310C2B00DC7A
:102C900070470C4B90F874101B6810B50446C0F8D0
:102CA000AC300023C0F844314FF0FF32B03020F098
:102CB00045FBB4F8443001221344A4F8443084F8AE
:102CC000482110BDA435002030B59FB0058CC48BC1
:102CD000818B428B038B019100920395054A0294EC
:102CE00005A8642129F0C0F805A9034815F0BEFE27
:102CF0001FB030BDF818030028320020F0B5C26CB8
:102D0000836CB0F93010B0F940E0B0F92E70D5B056
:102D100002EB82021091520003EB8303B0F93E6094
:102D2000B0F92C5012925B00B0F93C401193B0F90D
:102D30002A10CDF83CE0B0F93A300E97B0F92820CF
:102D40000D96B0F938600C95B0F926500B94B0F997
:102D500036400A91B0F924100993B0F84230089235
:102D6000B0F9342005940796069504910392B0F9C2
:102D70002240B0F93210B0F8442000920191064A86
:102D8000029415A8FA2129F06FF815A9034815F047
:102D90006DFE55B0F0BD00BF0C19030028320020B5
:102DA000704700BF704700BF38B500F1B00504465A
:102DB000284600293CD120F06DFBB4F85030013397
:102DC000A4F85030D4F84431012B80B23DDD042BFF
:102DD00050DC03F11802013354F822100A880C2B3E
:102DE00000EB52000880C4F8443138DD94F84831D3
:102DF000002B53D0444B454A1B68D4F8AC0092F8E2
:102E0000231092F824201B1AE364002960D0404B61
:102E1000404993F8383051F83220022B4FF001012D
:102E200082F880106BD93C4B4FF400221A6038BDF9
:102E3000012120F02FFBB4F852300133A4F85230B6
:102E4000D4F84431012B80B2C1DC03F11802013304
:102E500054F822200C2B1080C4F84431C6DC04EB5B
:102E60008303284693F874104FF0FF32BDE83840D2
:102E700020F064BA94F8482142B104EB43020133D4
:102E80000C2B1085C4F84431B4DCE8E704EB4302B2
:102E900001330C2B1083C4F84431E0DD1B4A1A4B7C
:102EA00092F824501A4A1B49D4F8A8001B6892F8DB
:102EB000382051F835101B1A022A4FF00100A36484
:102EC00081F80001154B14D84FF480221A6038BDE8
:102ED0000F4B104993F8383051F83220022B4FF045
:102EE000010182F8001108D90C4B4FF400221A603E
:102EF00038BD4FF400221A6038BD084BE4E7064B9A
:102F00004FF480221A6038BDA435002010A8FF1F9E
:102F1000182F0020C878030044F00F4048F00F40FD
:102F2000704700BF00207047704700BF0020704707
:102F300010B504464068034B236008B11EF076FAD2
:102F4000204610BD80180300F8B51E4C1E4F2046C9
:102F500007F1180615F08CFB0FCE083727600C27F9
:102F600067610127676504F1740504F118070FC54F
:102F700027660FCE04F11A07676604F11C07A766DF
:102F800004F11E07E76604F12007276700270FC535
:102F9000A4F84270A4F84470A4F85070A4F85270D9
:102FA000A765E7650FCE0FC533682B6004F1B0004D
:102FB00020F0E8F82046054A0549BDE8F84028F029
:102FC000ABB800BF389EFF1F901803000088FF1F9A
:102FD000312F000070B5114B114E53F8051C114AEA
:102FE000114DA3F139002431D2B050F821100091D5
:102FF00002A84FF4A07128F037FF02A9304615F05F
:1030000035FD0FCD02AC0FC495E80F0007C402A92F
:103010003046238015F02AFD52B070BD512F00209C
:1030200028320020281A0300541A030010B508465D
:103030000C4604220C4929F081F880B12046052273
:103040000A4929F07BF8034608B1002010BD084A60
:10305000104682F8203116F07FF9012010BD044897
:1030600016F092F9012010BD741A03007C1A0300B7
:103070002832002010B50549054A044615F0B4FB76
:1030800021460448BDE8104016F0DAB9B01A030032
:10309000841A03002832002008B50A2200210448BF
:1030A0002AF062FB00EB80004000033080B208BDD4
:1030B000C51A030030B583B002A90C4B41F8043D9A
:1030C00004460A2218462AF04FFB019B04F114051E
:1030D0000133194628461422019329F07FF8002372
:1030E000284684F8283003B030BD00BFC51A03005D
:1030F000F0B51F4DADF5037D06460A222846002196
:103100002AF032FB1B4B0595044605A928460A22E6
:1031100093F838702AF028FB059B06F1140501335B
:10312000194614222846059329F058F804EB840028
:1031300040000023033086F8283080B203950297C0
:1031400027F0E4FB26F090FF0B4B002227F00AF952
:103150000A4ACDE9000105A84FF4FA7128F084FE6F
:1031600005A9074815F082FC0DF5037DF0BD00BFF1
:10317000C51A0300182F002000002440E81A03009D
:103180002832002001B17047FFF7B2BF10B50846E2
:103190000C460622264928F0D1FF002839D0072204
:1031A0002449204628F0CAFF90B9E379202B04F186
:1031B000070403D114F8013F202BFBD01E491F4800
:1031C00015F054FC21461D4816F0FEF8D0B110BD94
:1031D00007221B49204628F0B1FF0028F2D1E379ED
:1031E000202B04F1070403D114F8013F202BFBD05E
:1031F0001449124815F03AFC2146104816F0E4F83C
:103200000028E4D1224610490C48BDE8104015F0D2
:1032100039BF0E49094815F029FCA379202B04F188
:103220000604CFD114F8013F202BFBD0CAE700BF22
:10323000001B0300281B0300301B03002832002062
:10324000501B0300581B0300781B0300081B0300DE
:10325000704700BF10B504464068034B236008B1B7
:103260001EF0E4F8204610BD8018030010B5064C8F
:10327000204615F0FDF9054B23602046044A054918
:10328000BDE8104027F048BF849FFF1F181A0300B5
:103290000088FF1F5532000030B59DB000F11B05BE
:1032A000436A0C4C00930C4A2B4603A8642128F077
:1032B000DBFD03A9204615F0D9FB2B46074A03A8DE
:1032C000642128F0D1FD03A9204615F0CFFB1DB0E5
:1032D00030BD00BF28320020A41B0300C01B030028
:1032E00038B500F11B0420460D4628F089FE29461A
:1032F0000246204628F022FFB0FA80F0400938BD8F
:103300000449C1604FF07E5200210170826042602A
:10331000704700BF6F12833A2DE9F04141600446C7
:103320000F4682600021184690461E4627F0EEFCAC
:1033300078B90346002523703046294627F0E6FC7D
:1033400050B94FF07E5325616561A361E361BDE82B
:10335000F0814FF00103EDE74146404627F026FAA1
:10336000E6683146804627F021FA41460546A061CD
:10337000304627F019FA294627F0D4FB3946E06198
:10338000384627F013FA01460746304627F00EFA72
:10339000294627F0C7FB39462061304627F004FA5A
:1033A000294627F0BFFB6061BDE8F081F8B50378DE
:1033B0003BB94FF07E5200238261C26103614361D9
:1033C000F8BD81680446084627F0F0F9E668314602
:1033D000074627F0EBF939460546A061304627F04D
:1033E000E3F9294627F09EFB6168E061084627F073
:1033F000DDF901460746304627F0D8F9294627F07F
:1034000091FB39462061304627F0CEF9294627F056
:1034100089FB6061F8BD00BF0023036243628362E1
:10342000C3627047037870B5044613B90020A062E8
:1034300070BDC069E16A256A00F1004027F0BEFA5C
:1034400021690646284627F0B9FA0146304627F09A
:10345000ADF9616A0646606927F0B0FA0146304668
:1034600027F0A4F96562E062A06270BD2DE9F04327
:103470000E4683B0044601A9304600222AF074F9B2
:10348000019D031C18BF0123AE4223700ED303BB62
:103490004FF07E520023A261E26123616361AE427C
:1034A00034BF2846002003B0BDE8F083284601A9B8
:1034B0002AF09CF82F46019D6060AF422E4632D222
:1034C000284601A92AF092F82378019DA060002BDC
:1034D000DED0A168084627F069F9D4F80C8041468F
:1034E000814627F063F949460746A061404627F028
:1034F0005BF9394627F016FB6168E061084627F062
:1035000055F901468146404627F050F9394627F0E3
:1035100009FB49462061404627F046F9394627F025
:1035200001FB6061BBE73E462378B0E7F0B5044697
:1035300085B08068277816460D4626F095FDCDE9C2
:103540000201606826F090FD3B46CDE90001054A86
:103550003146284628F088FC284605B0BDE8F040F2
:1035600028F04EBDD41B0300037803B9704710B593
:1035700004464168044803F041FFA1680248BDE8E1
:10358000104003F03BBF00BF08A2FF1FF8B503784F
:103590000446002B3BD0234B5B6B013B952B2CD976
:1035A000214A8168536A08335362084627F0FEF8BF
:1035B000E6683146074627F0F9F839460546A06126
:1035C000304627F0F1F8294627F0ACFA6168E0614F
:1035D000084627F0EBF801460746304627F0E6F8A4
:1035E000294627F09FFA39462061304627F0DCF85B
:1035F000294627F097FA6061F8BD0B4803F05AFF9F
:103600006060094803F056FF2378A0603BB94FF093
:103610007E520023A261E26123616361F8BD01462D
:10362000C3E700BF182F002008A2FF1F30B4074ACD
:10363000074C82604FF07E55002201214560C46036
:1036400041700270027430BC704700BF6F12833A41
:103650000024744938B50478C26041603CB94FF029
:103660007E520023C26102624361836138BD044619
:103670000846154627F09AF80A4B23620146E06196
:10368000A06827F04FFA08496061A061284627F03A
:1036900033FB4FF0010308B1237438BD0346237494
:1036A00038BD00BF000080BF0000C6422DE9F043D6
:1036B00083B002AF0E4647F8041D04463946304633
:1036C00000222AF051F8019D003018BF0120AE42BF
:1036D000207010D32378002B32D14FF07E5200237C
:1036E000E26122626361A361AE4234BF28460020DA
:1036F00003B0BDE8F0832846394629F077FFA84695
:10370000019D6060A845A94641D22846394629F066
:103710006DFF2049E060054627F0EEFA48BB019DA9
:103720002E46A94531D22846394600222AF01CF8F7
:103730002378019D003018BF01206070002BCCD091
:103740006168084627F032F8134B23620146E061B6
:10375000A06827F0E7F911496061A061E06827F0EF
:10376000CBFA4FF0010308B12374BDE7034623747D
:10377000BAE72846002127F0D3FA019D18B10123AA
:103780002E462374CDE72E46CBE74E46A2E74646AB
:10379000A0E700BF00247449000080BF0000C642BB
:1037A00070B5037C86B004460D461646CBB1C068A2
:1037B00026F05AFC02460B46617860680491CDE918
:1037C000022326F051FC23780B4ACDE90001314653
:1037D000284628F049FB284606B0BDE8704028F08E
:1037E0000FBC03A3D3E90023E6E700BFAFF30080DB
:1037F0000000000080842E41E01B030003783BB9E9
:103800004FF07E520023C2610262436183617047C0
:10381000416810B50446084626F0C8FF0A4B2362EB
:103820000146E061A06827F07DF908496061A06168
:10383000E06827F061FA4FF0010308B1237410BD6E
:103840000346237410BD00BF000080BF0000C642C5
:10385000002343628362C36203637047F8B5037851
:103860003BB30446006A216B676A00F1004027F011
:10387000A5F861690546384627F0A0F801462846B4
:1038800026F094FFA16A0546A06927F097F8014643
:10389000284626F08BFF237CE062054633B1E668BC
:1038A000314627F047FA38B1E66235462563A7620C
:1038B000F8BD0023C362F8BD06F100463146284634
:1038C00027F01AFA0028EFD1F0E700BF037803B918
:1038D000704710B504464168044803F08FFDE16865
:1038E0000248BDE8104003F089BD00BF08A2FF1FD9
:1038F000037810B504466BB1194B5B6B002B11DDDF
:10390000184803F0D7FD6060164803F0D3FD237814
:10391000E0605BB94FF07E520023E2612262636196
:10392000A36110BD0F4A536A0833536261680846A9
:1039300026F03CFF0C4B23620146E061A06827F0B3
:10394000F1F80A496061A061E06827F0D5F94FF00D
:10395000010308B1237410BD0346237410BD00BFDA
:10396000182F002008A2FF1F000080BF0000C642E1
:103970002DE9F04104460F46904614F079FE344993
:10398000344B354A216000254FF07E564FF0000E33
:103990000120394604F11B07E365C4F88830C4F8F8
:1039A000C030C4F8EC30C4F82431C4F8543184F881
:1039B0004D0084F8810084F8E500C4F88C20C4F838
:1039C000F0206561A57684F8505084F8805084F822
:1039D000905084F8B45084F8E45084F8F45084F89B
:1039E000185184F84851A6656665C4F88460C4F827
:1039F000BC60C4F8B860C4F8E860C4F82061C4F8DA
:103A00001C61C4F85061C4F84C6138462576C4F88E
:103A100030E0A263A66284F83450062228F0DEFB70
:103A2000394620460D4AC4F8248084F82C50266379
:103A3000E56325646564A56484F84C5014F0D4FEF5
:103A40002146074815F0FCFC2046BDE8F08100BF88
:103A5000941B03006F12833A00247449F01B030087
:103A60002832002010B500F11B010446044A14F06E
:103A7000BBFE21460348BDE8104015F0E1BC00BF85
:103A8000F01B03002832002000230367436783678D
:103A9000C367C0F8A430C0F8A830C0F8AC30C0F894
:103AA000B030C0F8D430C0F8D830C0F8DC30C0F83E
:103AB000E030C0F80831C0F80C31C0F81031C0F85F
:103AC0001431C0F83831C0F83C31C0F84031C0F88A
:103AD0004431C0F86831C0F86C31C0F87031C0F8BA
:103AE00074317047F8B590F850300446002B56D129
:103AF00000230366436694F880304FF07E5282665E
:103B0000C266002B77D10023C4F89430C4F89830F3
:103B100094F8B4304FF07E52C4F89C20C4F8A02032
:103B2000002B40F08C800023C4F8C430C4F8C830A7
:103B300094F8E4304FF07E52C4F8CC20C4F8D02082
:103B4000002B40F0B0800023C4F8F830C4F8FC30FB
:103B500094F818314FF07E52C4F80021C4F80421C3
:103B6000002B40F0C3800023C4F82831C4F82C3166
:103B700094F848314FF07E52C4F83021C4F8342113
:103B8000002B40F0E7804FF07E520023C4F8602104
:103B9000C4F86421C4F85831C4F85C31F8BD816DB3
:103BA000084626F003FEE66D3146074626F0FEFD88
:103BB00039460546A066304626F0F6FD294626F031
:103BC000B1FF616DE066084626F0F0FD014607464C
:103BD000304626F0EBFD294626F0A4FF3946206644
:103BE000304626F0E1FD294626F09CFF94F880300F
:103BF0006066002B87D0D4F88410084626F0D6FDE6
:103C0000704BC4F8A0300146C4F89C00D4F888007A
:103C100026F088FF6C49C4F89400C4F89800D4F8E2
:103C20008C0027F069F84FF00103002800F0C280F3
:103C300084F8903094F8B430002B3FF474AFD4F88B
:103C4000BC10084626F0B2FDD4F8C06031460746E5
:103C500026F0ACFD39460546C4F8CC00304626F0C7
:103C6000A3FD294626F05EFFD4F8B810C4F8D000B2
:103C7000084626F09BFD01460746304626F096FD95
:103C8000294626F04FFF3946C4F8C400304626F0D6
:103C90008BFD294626F046FF94F8E430C4F8C800AE
:103CA000002B3FF450AFD4F8E810084626F07EFD14
:103CB000444BC4F804310146C4F80001D4F8EC00C8
:103CC00026F030FF4049C4F8F800C4F8FC00D4F8EE
:103CD000F00027F011F84FF0010300286ED084F8AF
:103CE000F43094F81831002B3FF43DAFD4F8201194
:103CF000084626F05BFDD4F824613146074626F0DD
:103D000055FD39460546C4F83001304626F04CFDD5
:103D1000294626F007FFD4F81C11C4F834010846E0
:103D200026F044FD01460746304626F03FFD294671
:103D300026F0F8FE3946C4F82801304626F034FD56
:103D4000294626F0EFFE94F84831C4F82C01002BE8
:103D50003FF419AFD4F85011084626F027FDD4F8E7
:103D600054613146074626F021FD39460546C4F820
:103D70006001304626F018FD294626F0D3FED4F81F
:103D80004C11C4F86401084626F010FD01460746B0
:103D9000304626F00BFD294626F0C4FE3946C4F80D
:103DA0005801304626F000FD294626F0BBFEC4F837
:103DB0005C01F8BD034684F890303BE7034684F885
:103DC000F4308EE7000080BF0000C642F0B5054623
:103DD000CBB000F11B04806A26F046F92B7E0093DD
:103DE000CDE9020123467A4A06A84FF4877128F0EC
:103DF0003BF895F8F43006AA04461618C0F5877704
:103E0000002B00F0D780D5F8F00026F02DF90246FF
:103E10000B4695F8E510D5F8E8000491CDE90223AA
:103E200026F022F995F8E4306A4ACDE900013946D6
:103E3000304628F019F8304628F0E2F80444D5F866
:103E4000200195F8187126F00FF9CDE90201D5F897
:103E50001C0126F009F906AB1E19C4F587723B4612
:103E6000CDE90001114630465B4A27F0FDFF3046A0
:103E700028F0C6F80444D5F8500195F8487126F0AA
:103E8000F3F8CDE90201D5F84C0126F0EDF806ABC8
:103E90001E19C4F587723B46CDE900011146304634
:103EA0004D4A27F0E1FF304628F0AAF80444A86DF7
:103EB00095F8507026F0D8F8CDE90201686D26F02B
:103EC000D3F806AB1E19C4F587723B46CDE9000155
:103ED00011463046404A27F0C7FF304628F090F898
:103EE00095F89030044406AA1619C4F58777002B7C
:103EF00064D0D5F88C0026F0B7F802460B4695F84A
:103F00008110D5F884000491CDE9022326F0ACF8A5
:103F100095F880302F4ACDE900013946304627F028
:103F2000A3FF304628F06CF80444286B95F82C70F9
:103F300026F09AF806AB1A19C4F587763B46CDE908
:103F4000000131461046254A27F08EFF0444D5F87B
:103F5000BC0095F8B47026F087F8CDE90201D5F8D9
:103F6000B80026F081F806AB1E19C4F58772CDE9BA
:103F700000013B4611463046174A27F075FF304690
:103F800028F03EF806AB0444A86B95F83460C4F5FD
:103F900087751C4426F068F83346CDE90001104AC5
:103FA0002946204627F060FF06A90E4814F05EFD62
:103FB0004BB0F0BD04A3D3E900232AE702A3D3E961
:103FC00000239CE7AFF300800000000080842E41B6
:103FD000FC1B0300E01B0300D41B0300081C0300B0
:103FE000101C0300283200202DE9F04300F11B07CC
:103FF0009DB0054638460E4628F002F8394602467E
:10400000304628F09BF850BB0446304627F0F8FFB6
:10401000142803D820461DB0BDE8F0833B46B44ABF
:10402000642103A827F020FF03A9B24814F01EFD65
:10403000384627F0E5FF0644304601A90A2229F058
:1040400093FB019F003018BF0120BE4228760AD39F
:104050002846FFF7BBFE01201DB0BDE8F08300201D
:104060001DB0BDE8F08301A9384629F0BFFA0199D7
:10407000A8628F42ECD205F1E400FFF717FB074678
:104080000028E5D0224602A929F06EFB029E031CFF
:1040900018BF0123B74285F818313446C0F09E801E
:1040A000002B40F053814FF07E520023C5F83021A1
:1040B000C5F83421C5F82831C5F82C31BE42C7D91E
:1040C000002EC5D0002202A9304629F04DFB029CEB
:1040D000031C18BF0123A64285F84831274668D340
:1040E000002B40F0D4804FF07E520023C5F86021B1
:1040F000C5F86421C5F85831C5F85C31B442A7D978
:10410000002CA5D0002202A9204629F02DFB029EFA
:10411000031C18BF0123B44285F85030374635D30D
:10412000002B40F0E9804FF07E520023AA66EA6639
:104130002B666B66A6428BD9002E89D0314605F1DD
:104140008000FFF7B3FA0446002881D0002201A9BD
:1041500029F00AFB019E003018BF0120B44285F807
:104160002C0050D3002201A9204629F0FDFA019B22
:10417000003018BF0120A34285F834007FF668AFF5
:1041800001A9184629F032FAA86361E7304602A96E
:1041900029F02CFA029E6865B742344680F04081CF
:1041A000304602A929F022FA95F85030029EA865FF
:1041B000B6E7204602A929F019FA029CC5F84C017D
:1041C000A742264680F02881204602A929F00EFA4F
:1041D00095F84831029CC5F8500181E7304602A9A4
:1041E00029F004FA029EC5F81C01B442374680F05B
:1041F0000F81304602A929F0F9F995F81831029E8D
:10420000C5F820014CE701A9304629F0EFF92863F1
:10421000002E3FF41DAF019FBE4280F0F7800022C8
:1042200002A9384629F0A0FA029C031C18BF0123FA
:10423000BC4285F8B430264614D8002B40F0B68036
:104240004FF07E520023C5F8CC20C5F8D020C5F829
:10425000C430C5F8C830BC427FF6FAAE002C3FF43B
:10426000F7AE7FE7204602A929F0C0F9029CC5F805
:10427000B800A642274680F0D780204602A929F040
:10428000B5F995F8B430029CC5F8BC00D5E7D5F86F
:104290005011084626F08AFAD5F8548141468146E5
:1042A00026F084FA49460746C5F86001404626F0E4
:1042B0007BFA394626F036FCD5F84C11C5F8640176
:1042C000084626F073FA01468146404626F06EFA0B
:1042D000394626F027FC4946C5F85801404626F0E5
:1042E00063FA394626F01EFCC5F85C0106E700BFFC
:1042F000181C030028320020A96D084626F056FA43
:10430000D5F85C804146814626F050FA494607467A
:10431000A866404626F048FA394626F003FC696D47
:10432000E866084626F042FA01468146404626F0F5
:104330003DFA394626F0F6FB49462866404626F007
:1043400033FA394626F0EEFB6866F3E6D5F820111D
:10435000084626F02BFAD5F824814146814626F0FE
:1043600025FA49460446C5F83001404626F01CFAB5
:10437000214626F0D7FBD5F81C11C5F834010846B4
:1043800026F014FA01468146404626F00FFA2146EF
:1043900026F0C8FB4946C5F82801404626F004FA35
:1043A000214626F0BFFBC5F82C0187E6D5F8BC10E6
:1043B000084626F0FBF9D5F8C0804146814626F034
:1043C000F5F949460646C5F8CC00404626F0ECF91A
:1043D000314626F0A7FBD5F8B810C5F8D00008463E
:1043E00026F0E4F901468146404626F0DFF93146E1
:1043F00026F098FB4946C5F8C400404626F0D4F99B
:10440000314626F08FFBC5F8C80024E73446A9E6FC
:10441000274695F8183143E63E4695F848315FE661
:104420003C4695F850307BE6374695F8B43004E7C3
:1044300001B17047FFF7CABC10B4019C4464C1636A
:104440000264836410BC70472DE9F84F037E044674
:10445000002B00F07D81436990F82C2001330E463B
:104460004361002A40F0ED800023C56BC0F878312D
:1044700094F85030002B00F02281A37E2D68256730
:10448000002B00F0AB810021A846E06E00F1004057
:1044900026F094FA216E0746284626F08FFA014648
:1044A000384626F083F9616E0746404626F086FAC4
:1044B0000146384626F07AF994F84831A067E0675B
:1044C000C4F87C016567002B40F00181D4F840807E
:1044D00094F84C50D8F80070C4F88071002D40F06A
:1044E0000D81D4F87C513946284626F05DF9A16A41
:1044F00026F064FA94F81831C4F884010546002BBC
:1045000038D0002E40F07481D4F84411A37EC4F852
:104510003851002B00F07E81A846D4F8340100F118
:10452000004026F04BFAD4F828110746284626F01A
:1045300045FA0146384626F039F9D4F82C110746D9
:10454000404626F03BFA0146384626F02FF9C4F8DB
:104550003C51C4F84001C4F84401C4F88401002E61
:1045600000F05281BA4B46F21C2246F218219850B4
:104570005D50054694F8E43083B1A37EC4F8085139
:10458000002B40F02F81637E002B00F0DB81D4F8FC
:1045900010612846314626F009F905462846D4F828
:1045A000781126F003F994F88030C4F888010546A4
:1045B000002B00F0D480A37EC4F8A400002B40F0B0
:1045C0000681D4F8B010D4F8A870D4F8A00000F197
:1045D000004026F0F3F9D4F894100646284626F059
:1045E000EDF90146304626F0E1F8D4F89810064679
:1045F000384626F0E3F90146304626F0D7F894F81D
:104600009030C4F8AC00064653B1D4F88C703946EB
:1046100026F090FB002800F00381C4F8AC703E4601
:1046200094F88130C4F8B060C4F8A850002B00F0B2
:10463000ED802846314626F0B9F80546C4F88C01CD
:104640008FE0C56B016B286826F0B8F994F8B43098
:10465000C4F878010746002B3FF40AAFA37EC4F8E4
:10466000D400002B40F0D980D4F8E010D4F8D890D2
:10467000D4F8D00000F1004026F0A0F9D4F8C4101E
:104680008046384626F09AF90146404626F08EF8D4
:10469000D4F8C8108046484626F090F901464046B6
:1046A00026F084F894F85030C4F8DC00C4F8E00038
:1046B000C4F87801C4F8D870002B7FF4DEAE2B6804
:1046C000C4F87C3194F84831002B3FF4FFAE636CA2
:1046D000002B00F0BF80D4F840801968D4F84C015A
:1046E00026F06CF9D8F8001026F060F894F84C50D9
:1046F000C4F880010746002D3FF4F3AED4F87C5196
:10470000D8F80010284626F04FF825F0ADFC4AA353
:10471000D3E900238046894625F08AFF002848D146
:104720004046494646A3D3E9002325F063FF00280D
:104730003FF4D9AE284625F097FC43A3D3E90023E4
:1047400025F034FB25F0DCFF0546C4F87C01CAE601
:10475000836C00221A600023A376BDE8F88FC4F8AA
:104760008C01A66C94F83430356000226276002B00
:10477000F1D0D4F88C81A76B4046394626F0DAFA9E
:1047800050B194F84D3003B13D4601233560637656
:104790000023A376BDE8F88F07F10047404639466D
:1047A00026F0AAFA0028D6D094F84D30002BEBD191
:1047B000EBE7284625F058FC23A3D3E9002325F096
:1047C000F3FA25F09DFF0546C4F87C018BE6002135
:1047D000C4F8A800C4F8B0100746F6E6E16FD4F8B4
:1047E000748052E60023C4F80C51C4F81431CAE6B0
:1047F000174BD4F83C71D4F8441146F2102046F21D
:1048000014221F50995081E60546B3E6C4F88C6126
:104810003546A6E7D4F83C817FE60021814627E7AC
:1048200007F100473946304626F066FA00287FF443
:10483000F4AEF5E6AFF30080182D4454FB21094097
:10484000182D4454FB2109C0182D4454FB21194054
:1048500024A9FF1F56B1744BD4F87451D4F86C11CD
:1048600046F2042003F5C4421D50116094F84C50E8
:10487000D4F84080002D00F09D80D4F86C71D8F8F9
:1048800000903946484625F08FFF25F0EDFB60A3E8
:10489000D3E9002382468B4625F0CAFE002800F0AB
:1048A0009180384625F0E0FB5BA3D3E9002325F097
:1048B0007DFA25F025FFC4F86C01D4F8740125F0C9
:1048C000D3FB55A3D3E9002325F070FA25F018FF98
:1048D000C4F87401D8F80090A37EC4F86891002B46
:1048E0006BD000214F46D4F8640100F1004026F05F
:1048F00065F8D4F858118246484626F05FF801461C
:10490000504625F053FFD4F85C118246384626F015
:1049100055F80146504625F049FFC4F86C9107460A
:10492000C4F87001C4F87401C4F88001002E3FF48B
:10493000D5AD3D4B46F2082146F20C2243F80190DA
:104940009850CBE5D4F80401D4F8141100F10040DC
:1049500026F034F8D4F8F8100646284626F02EF84B
:104960000146304625F022FFD4F80C110646D4F853
:10497000FC0026F023F80146304625F017FF94F896
:10498000F430C4F8100106467BB1D4F8F070394613
:1049900026F0D0F930B907F100473946304626F005
:1049A000ABF910B1C4F810713E46C4F81461C4F8F4
:1049B0000C51EEE5D8F800908EE7D4F87411D4F8D5
:1049C0006C7190E75046594615A3D3E9002325F0B2
:1049D00011FE002880D0384625F046FB0EA3D3E90F
:1049E000002325F0E1F925F08BFEC4F86C01D4F822
:1049F000740125F039FB08A3D3E9002325F0D4F98D
:104A000025F07EFEC4F87401D8F8009064E700BF7A
:104A1000182D4454FB210940182D4454FB21194002
:104A2000182D4454FB2109C024A9FF1F90F8E4303D
:104A3000017E10B504460BB141F0020194F8183123
:104A40000BB141F0040194F848310BB141F0080179
:104A500094F850300BB141F0100194F880300BB154
:104A600041F0200194F82C300BB141F0400194F852
:104A7000B4300BB141F0800194F834300BB141F403
:104A8000807194F881300BB141F40071384802F024
:104A9000EFFC237E03B910BDA16A354802F0AEFCDD
:104AA00094F8E430002B57D194F81831002B48D1FA
:104AB00094F84831002B39D194F850306BBB94F8FE
:104AC0008030FBB994F82C304BB994F83430002B7B
:104AD000E1D0A16B2648BDE8104002F08FBC216BED
:104AE000234802F08BFC94F8B430002BEDD0D4F8BE
:104AF000B8101F4802F082FCD4F8BC101C4802F029
:104B00007DFCE2E7D4F88410194802F077FCD4F871
:104B10008C10174802F072FCD4E7616D144802F063
:104B20006DFCA16D124802F069FCC8E7D4F84C1185
:104B30000F4802F063FCD4F850110D4802F05EFCFF
:104B4000BAE7D4F81C110A4802F058FCD4F8201136
:104B5000074802F053FCABE7D4F8E810044802F031
:104B60004DFCD4F8F010024802F048FC9CE700BF6E
:104B700008A2FF1F2DE9F0419B4D0446284602F094
:104B8000C1FCC0F3001300F00107C0F34006C0F3FE
:104B90008001C0F3C00284F85030C0F34023277670
:104BA00084F8E460C0F34017C0F3801684F818114D
:104BB00084F84821C0F3C011C0F3002284F881308A
:104BC000C30784F8807084F82C6084F8B41084F8EB
:104BD000342001D4BDE8F081284602F06BFC94F843
:104BE000E430A0629BB1814B5B6B002B40F3C18131
:104BF000284602F05FFCC4F8E800284602F05AFCA0
:104C000094F8E430C4F8F000002B40F0B5814FF088
:104C10007E520023C4F80021C4F80421C4F8F830FF
:104C2000C4F8FC3094F81831002B46D06F4B5B6B06
:104C3000013B952B32D96B6AD4F8201108336B6293
:104C4000084625F0B3FDD4F824713946804625F096
:104C5000ADFD41460646C4F83001384625F0A4FDB6
:104C6000314625F05FFFD4F81C11C4F83401084622
:104C700025F09CFD01468046384625F097FD3146DB
:104C800025F050FF4146C4F82801384625F08CFD38
:104C9000314625F047FFC4F82C0119E0524802F0D4
:104CA00009FCC4F81C01504802F004FC94F81831C7
:104CB000C4F82001002B40F091814FF07E52002378
:104CC000C4F83021C4F83421C4F82831C4F82C3198
:104CD00094F84831002B46D0444B5B6B013B952B3D
:104CE00032D96B6AD4F8501108336B62084625F04C
:104CF0005DFDD4F854713946804625F057FD414694
:104D00000646C4F86001384625F04EFD314625F0D0
:104D100009FFD4F84C11C4F86401084625F046FD9B
:104D200001468046384625F041FD314625F0FAFE21
:104D30004146C4F85801384625F036FD314625F085
:104D4000F1FEC4F85C0119E0274802F0B3FBC4F897
:104D50004C01254802F0AEFB94F84831C4F85001EC
:104D6000002B40F03D814FF07E520023C4F86021BB
:104D7000C4F86421C4F85831C4F85C3194F8503058
:104D8000002B42D0194B5B6B013B952B30D96B6AE2
:104D9000A16D08336B62084625F008FDE76D3946C2
:104DA000804625F003FD41460646A066384625F0BC
:104DB000FBFC314625F0B6FE616DE066084625F045
:104DC000F5FC01468046384625F0F0FC314625F0DA
:104DD000A9FE41462066384625F0E6FC314625F01E
:104DE000A1FE606618E000BF08A2FF1F182F002078
:104DF0007D4802F05FFB60657B4802F05BFB94F846
:104E00005030A065002B40F0ED804FF07E52002323
:104E1000A266E2662366636694F8803093B1734BB2
:104E20005B6B002B40F384806F4802F043FBC4F8B7
:104E300084006D4802F03EFB94F88030C4F88C008A
:104E4000002B78D14FF07E520023C4F89C20C4F888
:104E5000A020C4F89430C4F8983094F82C30002B7B
:104E600042D0624E736B002B5EDD5F4802F022FB86
:104E7000206394F8B430002B4AD0736B013B952B20
:104E800040F29C806B6AD4F8BC1008336B62084611
:104E900025F08CFCD4F8C0703946804625F086FC9D
:104EA00041460646C4F8CC00384625F07DFC314624
:104EB00025F038FED4F8B810C4F8D000084625F024
:104EC00075FC01468046384625F070FC314625F0D9
:104ED00029FE4146C4F8C400384625F065FC314639
:104EE00025F020FEC4F8C80094F83430002B3FF4BD
:104EF00071AE3E4B5B6B002B04DC6B6A04336B6260
:104F0000BDE8F081384802F0D5FAA063BDE8F08131
:104F10004FF07E520023C4F8CC20C4F8D020C4F84F
:104F2000C430C4F8C830DFE76B6A04336B62A0E7B3
:104F30006B6A08336B62D4F88410084625F036FC9F
:104F40002B4BC4F8A0300146C4F89C00D4F888006C
:104F500025F0E8FD2749C4F89400C4F89800D4F877
:104F60008C0025F0C9FE4FF0010328B384F890307F
:104F700073E76B6A08336B62D4F8E810084625F0D3
:104F800015FC1B4BC4F804310146C4F80001D4F8E9
:104F9000EC0025F0C7FD1749C4F8F800C4F8FC0080
:104FA000D4F8F00025F0A8FE4FF0010310B184F80A
:104FB000F43037E60346FAE70346D7E70A4802F03B
:104FC00079FAC4F8B800084802F074FA94F8B430DA
:104FD000C4F8BC00002B9BD0014658E701462FE6E1
:104FE000014683E60146D6E608A2FF1F182F0020DF
:104FF000000080BF0000C64270B5C36B8AB0044693
:105000000D46016C1868D4F88021D4F87C310090EA
:105010000968D4F878610191184611460292049308
:10502000039625F0C1FBA16A25F0C8FCD4F8101145
:10503000D4F88821D4F88461A36C05900791089274
:1050400006961B6809932946034828236A460AF0F6
:1050500011F90AB070BD00BF24A9FF1FFFFFFFFFB9
:1050600010B50B4C0B49204613F000FD20460A49B1
:1050700013F0FCFC2046094913F0F8FC20460849CF
:1050800013F0F4FC20460749BDE8104013F0EEBCD5
:1050900028320020481C0300681C0300F01C030099
:1050A0003C1D03009C1D03002DE9F041032282B04A
:1050B0000C46054608463F4927F040F8C0B1032298
:1050C0003D49204627F03AF818B1002002B0BDE86B
:1050D000F08102A9E01C41F8040D0A2228F044FBEB
:1050E0000128D8BFC5F8E000012002B0BDE8F0817A
:1050F00002AEE01C46F8040D0A22314628F034FBCB
:1051000031460446019828F071FA31460746019865
:1051100028F06CFA314680460A22019828F024FBD8
:1051200095F87C30AC67061C18BF0126A3B134B3D8
:10513000013C082C4FF001008CBF0024012485F8AD
:105140007C40C5F88070C5F8848085F8746085F867
:10515000880002B0BDE8F081013C082CE9D895F840
:10516000E63003BB1946012285F8B81085F8B9303E
:1051700085F8E620114611480FF072FDD9E7B5F920
:10518000E430002B12DD0E4B95F8B920586C596BAA
:105190009B6B6864C5F8CC10C5F8D03085F8E62064
:1051A0004FF0FF34C5E795F87410DCE74FF0FF349B
:1051B000BFE700BFF01D0300F41D0300902D002089
:1051C0004CA2FF1F10B50446406913F0D5FAE06900
:1051D00013F0D2FA206A13F0CFFA606A13F0CCFA17
:1051E000A06A13F0C9FAE06A13F0C6FA206B13F054
:1051F000C3FA606B13F0C0FAA06BBDE8104013F067
:10520000BBBA00BF2DE9F041044690F87C009DF840
:105210001880A16716461F4620B3B1BBB4F9E4302D
:10522000002B32DD1B4B94F8B920586C596B9B6BEB
:105230006064C4F8CC10C4F8D03084F8E6204FF095
:10524000FF35082D8CBF00210121012384F87C103B
:10525000C4F88060C4F8847084F8748084F888305E
:10526000BDE8F0814D1E082DEBD894F8E63073B9F7
:105270001946012284F8B81084F8B93084F8E62081
:10528000114605480FF0ECFCDBE74D1ED9E794F81A
:105290007410EEE74CA2FF1F902D0020F0B5A5B0D2
:1052A00069BB244DD0F8E0302A689342B0F9E4207D
:1052B0002ED090F86810204E044605EB830094F938
:1052C0003D70806804910021009202901B4A039176
:1052D00006A87821019726F0C7FD06A9184813F003
:1052E000C5FBD4F8E000B4F9E410626E94F86830BD
:1052F000326085E8030084F8A83025B0F0BDD0F80E
:10530000E030B0F9E42090F868100A4D0A4ED3E777
:1053100069688A42CDD1416E0029EED0064E3468CC
:10532000A14290F86810C7D190F8A8408C42C3D130
:10533000E3E700BF208DFF1F00A0FF1FF81D030043
:1053400028320020F8B5B0F9E45065B1012D08D13C
:105350001B4E04464FF07C51D6F8400125F0EAFC84
:1053600090B90020F8BD174B5A7E12B91A7E002A58
:10537000F7D0134A0021C2F8401101210022A0F801
:10538000E4101A760020F8BDD4F8E0100E4800238F
:105390000029C6F840314FF00007D4BF0023012395
:1053A000013984F88930A4F8E4703A4602F058FBD9
:1053B0000028D6D0034B86F83C711D76D1E700BF9C
:1053C0000C0C0020182F002008A2FF1F2DE9F0412F
:1053D000B0F9E42082B0002304468DF805308DF842
:1053E00006308DF80730082A00F2FF80DFE812F05F
:1053F0001B009800DA00FD00FD00FD00A300BD00C9
:105400000900B74B5B7E002202644BB9B54DD0F862
:10541000B410D5F8400125F08DFC002840F04E81F5
:1054200002B0BDE8F081AE4E737E13B9337E002B1F
:10543000F6D0AD4DAB4FE869DFF8C482FEF752FB02
:10544000286AFEF74FFB686AFEF74CFBA86AFEF776
:1054500049FBE86AFEF746FB286BFEF743FB686BE7
:10546000FEF740FBA86BFEF73DFBE86BFEF73AFB4F
:10547000286CFEF737FB737E9C4AD8F83C50002B13
:105480004FF00001C7F840114FF000030CBF01219D
:10549000062187F83C310020A4F8E410002184F8AC
:1054A000C83084F8E730C4E93E01C4F804219049CB
:1054B00084F8C9508F4813F0D9FA8F498D4813F0FA
:1054C000D5FA0DF1070338460DF105020DF106017D
:1054D0000BF050FF9DF80530002B40F0E6809DF862
:1054E0000630002B40F0D3809DF807302BB1834964
:1054F000804813F0BBFA9DF80730814888F83830AF
:10550000322109F07FFE502200217E4826F058FA11
:10551000002211467C480FF0A3FB02B0BDE8F081E9
:1055200070480BF091FB00287CD10923A4F8E430EB
:1055300002B0BDE8F0816B4BD3F8400124F094FD3C
:1055400063A3D3E9002306460F4625F071F818B18E
:10555000634B5B7E002B61D0304639464FF03332CF
:105560006A4B25F065F888B95AE75D4B5B7E002BE6
:105570004AD15C4BD3F8400124F076FD4FF0333232
:10558000624B25F055F800283FF44AAF564BD3F84C
:1055900018310122002BA4F8E4207FF741AFC4F8B2
:1055A000E0303DE74F4D28460BF0ACFA38B995F89E
:1055B0003C3123B94A4B5B7E002B3FF431AF0823CB
:1055C000D5F84001A4F8E43024F04EFD42A3D3E91D
:1055D000002324F0EBFB25F093F80123C4F8B4007A
:1055E00084F83C3002B0BDE8F0813E4B4849414868
:1055F000012283F83C2113F039FA46493D4813F063
:1056000035FA02B0BDE8F081374AD2F818310621E8
:105610000133C2F81831A0F8E41001E70723A4F819
:10562000E430FDE60223A4F8E4306069FEF72CFACA
:10563000A069FEF729FAE069FEF726FA206AFEF76C
:1056400023FA606AFEF720FAA06AFEF71DFAE06A04
:10565000FEF71AFA206BFEF717FA606BFEF714FAE2
:10566000A06BFEF711FA0023C4F8D430C4F8D83088
:10567000C4F8CC30C4F8D030C4F88C30C4F89030C2
:10568000254806F0B7FC012384F8E630C8E6224B33
:10569000224918480022012483F8234083F822205D
:1056A00083F8212013F0E2F91EE71D49114813F099
:1056B000DDF901211B4805F0D3FA10E7092328463C
:1056C000A4F8E4300BF014FBAAE600BFAFF30080AF
:1056D0009A9999999999B93F9A9999999999A93FBC
:1056E000182F00200C0C002000A0FF1FDB0F4940EA
:1056F000141E030028320020201E0300881E030011
:1057000024A9FF1F240B0020902D00203333F33FEA
:105710009C1E0300A81E030010A8FF1F6C1E0300A0
:105720005C1E0300C0A7FF1F10B50446124894F882
:10573000E01001F081FE6069FFF778F9A069FFF7DA
:1057400075F9E069FFF772F9206AFFF76FF9606A8F
:10575000FFF76CF9A06AFFF769F9E06AFFF766F9ED
:10576000206BFFF763F9606BFFF760F9A06BBDE892
:105770001040FFF75BB900BF08A2FF1F38B5164DF8
:105780000446284601F0AAFE95F82030C4F8E0004F
:1057900013B10023C4F8E0306069FFF7EBF9A069AA
:1057A000FFF7E8F9E069FFF7E5F9206AFFF7E2F9AA
:1057B000606AFFF7DFF9A06AFFF7DCF9E06AFFF73C
:1057C000D9F9206BFFF7D6F9606BFFF7D3F9A06B1F
:1057D000BDE83840FFF7CEB908A2FF1F2DE9F04F12
:1057E000044685B0DFF8F0A0006A374EDFF8EC9091
:1057F000002504F194073B4604F1580152460095F8
:10580000FEF71AFE04F18C08304B606A0093524692
:10581000434604F1540100F0F1FF2D4BE06ACDF84E
:1058200004801A1D04F148010291009204F14C0118
:105830001A1F01F0D1F806F1080A434604F1980155
:1058400004F16C08E069324604F1700B00F062FF6D
:10585000A06A009741465B46524601F099F9A06B59
:1058600000975B465246414604F19C0AA6F1100897
:1058700001F08EF9394653464246606B01F058F903
:10588000144B206B0093514604F1A003321DFEF728
:10589000D3FD60690095424604F1D4014B46FEF702
:1058A000CBFD6369A06983F84D50A6F10C0209F1A4
:1058B0000403009504F1D801FEF7BEFDA36983F847
:1058C0004D5005B0BDE8F08F90A2FF1F9A99993E08
:1058D0002CA8FF1FC8A6FF1FD4A7FF1FA42D0020C0
:1058E000F8B5014604465548554E564D13F0A8FDEF
:1058F0004FF4C8701BF096FD324629460746FEF766
:1059000037F867614FF4C8701BF08CFD32462946AA
:105910000746FEF72DF8A7614FF4CC701BF082FD0F
:10592000494A4A49054600F0E7FEE5614FF4CC706C
:105930001BF078FD464A4749054601F069F92562A2
:105940004FF4D2701BF06EFD434A4449054600F007
:1059500041FF65624FF4D2701BF064FD404A41493B
:10596000054601F00BF9A5624FF4D6701BF05AFD05
:105970003D4A3E49054601F01DF8E5624FF4C87006
:105980001BF050FD3A4A3B490546FDF7F1FF256300
:105990004FF4CE701BF046FD374A3849054601F0FA
:1059A000B7F865634FF4D2701BF03CFD3449354ABB
:1059B000054601F0E3F800234FF6FF7284F8E63065
:1059C000C4F8E030A4F8E43084F8A43084F8A530BA
:1059D000A4F8A6202046A563FFF700FF6069FEF744
:1059E00053F8A069FEF750F8E069FEF74DF8206A19
:1059F000FEF74AF8606AFEF747F8A06AFEF744F837
:105A0000E06AFEF741F8206BFEF73EF8606BFEF7A8
:105A10003BF8A06BFEF738F80023C4F8D430C4F884
:105A2000D830C4F8CC30C4F8D030C4F88C30C4F8C6
:105A300090301548BDE8F84006F0DCBA2832002066
:105A4000E41E0300FC1E0300041F0300141F0300D8
:105A50001C1F0300341F03003C1F0300541F0300DE
:105A60005C1F0300741F03007C1F0300901F0300D2
:105A7000981F0300B01F0300B81F0300D41F0300CA
:105A8000FC1F0300DC1F030010A8FF1F10B5044615
:105A90004069FDF7F9FFA069FDF7F6FFE069FDF742
:105AA000F3FF206AFDF7F0FF606AFDF7EDFFA06AE3
:105AB000FDF7EAFFE06AFDF7E7FF206BFDF7E4FF83
:105AC000606BFDF7E1FFA06BFDF7DEFF0023C4F87C
:105AD000D430C4F8D830C4F8CC30C4F8D030C4F8CE
