:1000000000800020BD010000714801002948010066
:100010002948010029480100294801002948010018
:1000200029480100294801002948010071480100C0
:100030007148010029480100714801001948010078
:1000400071480100714801007148010071480100C8
:1000500071480100714801007148010071480100B8
:1000600071480100714801007148010071480100A8
:100070007148010071480100714801007148010098
:100080007148010071480100714801007148010088
:100090007148010071480100714801007148010078
:1000A00011B10000A5B400007148010071480100C1
:1000B0007148010071480100714801007148010058
:1000C0007148010071480100714801007148010048
:1000D0007148010071480100714801007148010038
:1000E0007148010071480100714801007148010028
:1000F00071480100E96A01007148010011810100A5
:10010000714801003185010071480100714801000A
:1001100071480100714801007148010071480100F7
:1001200071480100D1D10000B9D20000714801002E
:1001300071480100714801007148010071480100D7
:1001400071480100714801007148010071480100C7
:100150004DBE010065BE01007DBE010095BE0100DF
:10016000714801007988010071480100714801005F
:100170007148010071480100714801007148010097
:100180007148010071480100714801007148010087
:100190007148010071480100714801007148010077
:1001A0007148010071480100714801007148010067
:1001B000714801007148010011BB0100F8B55D4BA9
:1001C0004CF220514DF6281219801A8000BF00BF52
:1001D00014F052FB584D594A59485A4C5A495B4BF6
:1001E0004FF010662E60046011601A6812F480727D
:1001F00006D1A0F5304024384FF4A85102601960B0
:10020000534B1A78160703D51A7842F008021A7071
:100210005048514B514A2A219842117007D2C2438B
:10022000134423F0030204324D4922F045FD4D48AA
:100230004D4B984207D2C243134423F003020432C9
:10024000002122F033FE494949484FF4DE7222F082
:1002500033FD484B4849802203F8012B8B42FBD1E8
:10026000464A4348464C4749474B10600A252420DC
:10027000A022464E257008701A7033789D07FCD571
:10028000424B1A78D406FCD4404B1A7802F00C0288
:10029000082AFAD13E493F4B3C4C032040220870CB
:1002A0001A7023789806FCD5384B1A785106FCD57D
:1002B000394A3A483A49344B1060344C02202022E3
:1002C00008601A70237803F00C030C2BFAD1354820
:1002D000354E364C3649374B374D0560374F384A27
:1002E000376000250720256008601A6062B614F0A8
:1002F000FBFD344B1B68DA0714D4334B1B785B06C9
:1003000009D5324C324A2368934204D1314814F063
:10031000A5FD0023236022F0F1F914F0B3FA0DF0EB
:1003200047F8FEE72B4814F099FD284B284A1A603D
:10033000E3E700BF0E200540308004403C800440CD
:1003400038800440823F04000100002B10D003409D
:1003500002D007406887FF1F3098FF1F00E007406A
:1003600070F502003098FF1FAC380020000000003C
:100370000082FF1F00E400E05FE400E008ED00E021
:10038000005006400140064000400640064006403E
:10039000044006400540064044800440000003013C
:1003A000488004400480044014E000E018E000E0CD
:1003B00010E000E020ED00E0C0100500FF76010035
:1003C0000000202014D0034000F007401CE0034050
:1003D000A5C3945A00DD6850FFFFFFFFFFFFFFFF3A
:1003E000FFFFFFFFFFFFFFFFFFFFFFFFFFFFFFFF1D
:1003F000FFFFFFFFFFFFFFFFFFFFFFFFFFFFFFFF0D
:10040000FFFFFFFFFFFFFFFFFFFFFFFFFEFFFFFFFD
:1004100010B5054C237833B9044B13B10448AFF33E
:1004200000800123237010BD3098FF1F00000000E2
:1004300068F5020008B5064B1BB106480649AFF344
:1004400000800648036813B1054B03B1984708BD07
:100450000000000068F502003498FF1F3098FF1F6D
:1004600000000000FFFFFFFFF0B53A4C83B00646E6
:1004700023F0F4FC94F900400134074609D0364DCE
:100480002C7823060CD42146042943D9012003B03B
:10049000F0BD3378232BF9D02F4D2C782306F2D5DD
:1004A0003946304619F07CF829784BB20233EBD14B
:1004B000F31913F8013C0A2BE8D1042FE6DD274B92
:1004C00093F895211AB1032A31D0022A2CD093F83F
:1004D00096211AB1032A2FD0022A2AD093F8972105
:1004E0001AB1032A34D0022A28D093F898211AB1DD
:1004F000032A26D0022A26D093F89931002BC5D0A2
:10050000032B04D0022BC1D13378232BBED004217E
:10051000002001E0002049B2009032463B460F48DF
:1005200012F082FE03B0F0BD3278232ACFD0002132
:10053000EEE73278232AD1D00121E9E73178232967
:10054000D3D01146E4E73278232AD5D00321DFE760
:100550000221DDE74C98FF1F6C87FF1F443000200D
:1005600008B500210A22054825F028F800EB800094
:1005700000EB80008000033080B208BD01980200CB
:100580002DE9F04F684D694A694BB5F800A0B2F902
:100590000090B2F90280B2F904C0B2F906E0B2F9F3
:1005A0000870B2F90C50B2F90A60B2F90EB0B3F9A2
:1005B0000020604C60486149D5B0CDF800A0B3F987
:1005C00002A0CDF80490B3F90490CDF80C80B3F9F3
:1005D0000680CDF814C0B3F908C0CDF81CE0B3F91B
:1005E0000AE00997B3F90C70B3F90E30CDF828C0C2
:1005F000CDF830E00D9502920B96CDF83CB0CDF8D9
:1006000010A0CDF81890CDF820800E972488109374
:10061000006809684A4A00EB800001EB8101400054
:10062000490023461190129114A8FA2122F096FE57
:1006300014A823F013FC434A92F900200132054626
:1006400009D0414C227813060DD41146042945D90E
:1006500055B0BDE8F08F9DF85030232BF8D03A4CC0
:1006600022781306F1D5294614A818F099FF2178AD
:100670004BB20233EAD10DF14F035B5D0A2BE7D198
:10068000042DE5DD9DF85030232B304B93F8952158
:100690002FD01AB1032A34D0022A32D093F89621EF
:1006A0001AB1032A2BD0022A29D093F897211AB124
:1006B000032A35D0022A33D093F898211AB1032A9D
:1006C00030D0022A2ED093F89931002BC0D0032BC2
:1006D00001D0022BBCD10421002001E0002049B24E
:1006E000009014AA2B46194812F09EFD55B0BDE8A3
:1006F000F08F032A05D093F89621032A03D1012114
:10070000EAE70021E8E793F89721032A08D093F855
:1007100098110329E0D093F89931032BDBD097E7A8
:100720000221D9E70321D7E7AA130020608DFF1F1C
:10073000708DFF1FE4130020D8130020D413002075
:10074000089802004C98FF1F6C87FF1F4430002060
:100750002DE9F041584B594A1C88594BB2F800809A
:100760005D8856881F88CAB0204621F02BFD554968
:1007700021F07CFD21F0E6F8CDE90001C7EB08008F
:10078000CDF80880039721F01DFD4F4921F06EFD43
:1007900021F0D8F8CDE90401701B0795069621F0E9
:1007A00011FD494900F1004021F060FD21F0CAF837
:1007B000464ACDE908012346FA210AA822F0CEFDD7
:1007C0000AA823F04BFB424A92F900200132054669
:1007D00009D0404C227813060DD41146042945D97E
:1007E0004AB0BDE8F0819DF82830232BF8D0394C71
:1007F00022781306F1D529460AA818F0D1FE2178EF
:100800004BB20233EAD10DF127035B5D0A2BE7D12E
:10081000042DE5DD9DF82830232B2F4B93F89521EF
:100820002FD01AB1032A34D0022A32D093F896215D
:100830001AB1032A2BD0022A29D093F897211AB192
:10084000032A35D0022A33D093F898211AB1032A0B
:1008500030D0022A2ED093F89931002BC0D0032B30
:1008600001D0022BBCD10421002001E0002049B2BC
:1008700000900AAA2B46184812F0D6FC4AB0BDE8F0
:10088000F081032A05D093F89621032A03D1012190
:10089000EAE70021E8E793F89721032A08D093F8C4
:1008A00098110329E0D093F89931032BDBD097E717
:1008B0000221D9E70321D7E7AC130020B42F002091
:1008C000842F00209A99013B4C914F3A5498020092
:1008D0004C98FF1F6C87FF1F443000202DE9F0412A
:1008E0004F4F504E504D9CB0002408E02A7813061C
:1008F0002BD41146042964D901347F2C6CD048488C
:10090000E1B20AF0E3F93B6845481B6800219847CB
:1009100001214FF47A7242480AF0E6F9434A019005
:1009200064212346009402A822F018FD02A823F0B7
:1009300095FA96F9002001328046D7D19DF808300B
:10094000232BD9D02A781306D3D5414602A818F014
:1009500027FE29784BB20233CCD11CAB434413F8A9
:10096000693C0A2BC8D1B8F1040FC5DD304B93F8B0
:1009700095211AB1032A36D0022A30D093F8962155
:100980001AB1032A3CD0022A36D093F8971119B134
:10099000032942D0022935D093F898211AB1032AAD
:1009A00039D0022A33D093F89931002BA4D0032BED
:1009B00005D0022BA0D19DF80830232B9CD0042118
:1009C00012E00020009049B24346194802AA0134BF
:1009D00012F02AFC7F2C92D11CB0BDE8F0819DF86A
:1009E0000820232ACAD0002100220092434602AAEE
:1009F0000F4812F019FC7FE79DF80820232AC4D085
:100A00000121F1E79DF80820232AEDD1C4E79DF8E4
:100A10000820232AC7D00321E6E70221E4E700BF2C
:100A2000001300204C98FF1F6C87FF1F7C9802006A
:100A300044300020F0B55E4B1C7895B0002C3DD1C1
:100A40005C4D6B78002B40F0A8805B4A5B4B5C4CA4
:100A50005C4D1978106800234FF0FF3223702B6033
:100A600019F054F8584A594B1268594C198859488A
:100A7000246804600F2A01F10101CCBF06200B207D
:100A8000198014F017FD544C003018BF0120638802
:100A9000F8B1312B7CD020D8013363804F4B1B78C9
:100AA000FBB111F09FF800285ED00023A36011F085
:100AB0003BF8B0B94A48FFF7D7FC12E03D4C6378E9
:100AC000002BC2D11220012114F002FD012363701A
:100AD000BBE7012B44D0002B43D1404B1B78002BAC
:100AE000DFD1404B1B78002B33D03F4AE5682769A4
:100AF0003E4B108856883E49C72202FB05FE02FB8A
:100B000007F7A3FB0757A3FB0E2E00EB9E1E06EB79
:100B10009717A3FB0E52A3FB0753C2F38F12C3F325
:100B20008F15C4F80CE027610A804D80801A21F0EF
:100B300049FB3049304C21F099FB2060701B21F0BB
:100B400041FB2C4900F1004021F090FB606015B0A2
:100B5000F0BD254A264B108856885D881A88E5E73F
:100B60002071013B6380B8E7A268244B0132134037
:100B7000002BA26017DB1F2B99D1009202A84621FF
:100B80001F4A002322F0EAFB02A8FFF76DFC8EE764
:100B9000012201332271638080E71220214614F084
:100BA00097FC6C7051E7013B63F01F030133E2E7F0
:100BB000401300206C87FF1FA4130020988DFF1F97
:100BC000A81300209C130020E8130020E413002049
:100BD00090130020DC1300204C98FF1FC41300204A
:100BE000D4980200E08DFF1FB42F00201F85EB5129
:100BF000842F00204C914F3AB82F00201F00008016
:100C00009C98020030B5434C8DB0606920F09AFE8C
:100C1000414ACDE90001232102A822F09FFB02A84E
:100C200023F01CF994F900200132054608D03B4C12
:100C3000227813060CD41146042945D90DB030BDD5
:100C40009DF80830232BF9D0344C22781306F2D5C6
:100C5000294602A818F0A4FC21784BB20233EBD14C
:100C60000CAB2B4413F8293C0A2BE7D1042DE5DD0E
:100C70009DF80830232B2A4B93F895212ED01AB1DA
:100C8000032A33D0022A31D093F896211AB1032ACD
:100C90002AD0022A28D093F897211AB1032A34D0F7
:100CA000022A32D093F898211AB1032A2FD0022AAF
:100CB0002DD093F89931002BC0D0032B01D0022BFB
:100CC000BCD10421002001E0002049B2009002AA1A
:100CD0002B46134812F0A8FA0DB030BD032A05D0F8
:100CE00093F89621032A03D10121EBE70021E9E7DC
:100CF00093F89721032A08D093F898110329E1D09B
:100D000093F89931032BDCD098E70221DAE703212D
:100D1000D8E700BF4C98FF1FF49802006C87FF1FB4
:100D2000443000202DE9F04F7449DFF80C92744AEA
:100D3000D1F80080B9F900001468724F724EDFF8E4
:100D4000FCB1DFF8FCA1714DADF5097D21F03AFA57
:100D5000414621F08BFA20F0F5FDCDE90001B9F90B
:100D6000020021F02FFA0146404621F07FFA20F0E0
:100D7000E9FDCDE90201B9F9040021F023FA0146A9
:100D8000404621F073FA20F0DDFDCDE90401B7F90A
:100D9000000021F017FA214621F068FA20F0D2FD78
:100DA000CDE90601B7F9020021F00CFA0146204610
:100DB00021F05CFA20F0C6FDCDE90801B7F9040086
:100DC00021F000FA0146204621F050FA20F0BAFD49
:100DD000CDE90A01306821F0F5F90146204621F0FD
:100DE00045FA20F0AFFDCDE90C01706821F0EAF979
:100DF0000146204621F03AFA20F0A4FDCDE90E018B
:100E0000B06821F0DFF90146204621F02FFA20F0EA
:100E100099FDCDE91001BBF80020BAF800303C4C38
:100E2000D01A2178129121F0CDF93A4921F01EFA19
:100E300020F088FDBBF80220BAF80230CDE9140199
:100E4000D01A21F0BFF9334900F1004021F00EFA29
:100E500020F078FDCDE916012F4B30490CCB086806
:100E60001892199320F06EFDCDE91A012B4B5868AA
:100E700020F068FDCDE91C012949086820F062FDD9
:100E8000CDE91E01264B586820F05CFDCDE920011C
:100E9000286820F057FDCDE92201686820F052FD56
:100EA000CDE92401A86820F04DFDCDE926011D4BB8
:100EB000186820F047FDCDE92801E86820F042FDE0
:100EC000194A1A4B12792C92CDE92A01188821F07F
:100ED00079F9174921F0CAF920F034FD154ACDE916
:100EE0002E014FF4AF7130A822F038FA30A8FFF786
:100EF000BBFA0DF5097DBDE8F08F00BFF4DE0200FE
:100F0000F8DE0200E02F0020E82F0020FC2F002058
:100F1000E62F00204C914F3AAC2F002034300020B7
:100F2000103000200C3000204C98FF1FAC13002024
:100F30009A99013B00990200D82F0020B42F00207D
:100F4000842F002030B500219FB00A22444824F0AD
:100F500035FB444B00901B7802930323424A0193D4
:100F60006421022304A822F0F9F904A822F076FFF4
:100F70003E4A92F900200132054608D03C4C2278C6
:100F800013060CD41146042945D91FB030BD9DF875
:100F90001030232BF9D0364C22781306F2D529468F
:100FA00004A818F0FDFA21784BB20233EBD11EAB46
:100FB0002B4413F8693C0A2BE7D1042DE5DD9DF89D
:100FC0001030232B2B4B93F895212ED01AB1032AE6
:100FD00033D0022A31D093F896211AB1032A2AD0AD
:100FE000022A28D093F897211AB1032A34D0022A72
:100FF00032D093F898211AB1032A2FD0022A2DD08B
:1010000093F89931002BC0D0032B01D0022BBCD117
:101010000421002001E0002049B2009004AA2B46E0
:10102000144812F001F91FB030BD032A05D093F81F
:101030009621032A03D10121EBE70021E9E793F888
:101040009721032A08D093F898110329E1D093F847
:101050009931032BDCD098E70221DAE70321D8E7A6
:1010600001980200C41300207C9902004C98FF1FD5
:101070006C87FF1F443000202DE9F04F4378AA4AC7
:101080003D2BADF6640D04460D46117006D005F0FB
:1010900027FCA8B30DF6640DBDE8F08F03784D3B37
:1010A0002A2B00F2E880DFE813F0D400E600E60027
:1010B000E600E600C900C100E600E600E600E60042
:1010C000E600E600E600E600E600E600E600E600F0
:1010D000E600B500E600E600E600E600E600E60011
:1010E000E600AD00E600E600E600E600E600E60009
:1010F000E600E600E6009600E600E600E600860070
:1011000020460AF061FF0028C4D1204608F068FE9E
:1011100001460028BED125783C2D00F0D080752DE9
:1011200000F04C81762D00F03B81782D00F0038497
:1011300020467E49042222F0EBFE002800F02881A0
:1011400005F0DF03482B00F0718120467849032227
:1011500022F0DEFE0646002800F06884204675492D
:10116000032222F0D5FE0646002800F073842046B4
:101170007149032222F0CCFE002800F07C84204636
:101180006E49032222F0C4FE06462046002E40F09F
:1011900011843D2122F07CFC002800F07D84314642
:1011A00001300A2224F00AFA20EAE07101226448A0
:1011B00009F000FA6EE7CBB2042B3FF66BAF0230BA
:1011C00000210A2224F0FAF903283FF663AFDFE892
:1011D00000F0706A645E0A22023018A924F0EEF969
:1011E000584A189B10601A781F2A7FF653AF18468A
:1011F00018A90A2224F0E2F9534B003018BF01204D
:10120000187047E7023000210A2224F0D7F94F4B2B
:1012100018703FE74E48FFF727F910F085FC70BBC8
:101220004C48FFF721F910F0DDFC33E702300021D4
:101230000A2224F0C3F9454B98612BE702300021C4
:101240000A2224F0BBF9414B003018BF0120187767
:1012500020E7414BB3F90010A9B90A22023024F06B
:10126000ADF93E4A3E4B126818609042FFF612AF4D
:10127000013A1A600EE73B48FFF7F6F80AE73A48EA
:10128000FFF7F2F8CFE73948FFF7EEF802E7384BFF
:101290001D44032385F89531FCE6354B1D4402239C
:1012A00085F89531F6E6324B1D44012385F89531DA
:1012B000F0E62F4B1D44002385F89531EAE6651CC6
:1012C00028462C49052222F023FE002800F01A832C
:1012D00028462949032222F01BFE002800F017832C
:1012E00028462649052222F013FE002800F05C83E0
:1012F00028462349032222F00BFE002800F0248315
:1013000028462049032222F003FE002800F09D8396
:1013100028461D49052222F0FBFD002840F03F83AE
:101320001A480FF019FFB5E66C87FF1FF49A020008
:1013300060A5020078A502007CA5020080A502003D
:10134000C41200203C88FF1F4888FF1F4C98FF1FD5
:10135000BC990200049A0200F098FF1FD0A7020077
:10136000F498FF1F209A0200E89902009499020065
:1013700044300020389A0200409A0200449A020049
:101380004C9A0200849A0200889A02007C2E002067
:1013900023791F2B00F2AA82214B01221A7079E6D1
:1013A0006378312B00F0C282322B00F0BA82302BEE
:1013B00000F0B3821B48FFF757F86BE6601C0A2267
:1013C00024F0FCF843B20C2B26D8DFE803F0221FF0
:1013D0001B181525120F0C0707070700083840B225
:1013E0000BF030F856E6FFF7B3F953E6FFF7C8F80D
:1013F00050E610F0EFFD4DE610F080FF4AE608F0F1
:1014000075FC47E6012001F08FF843E6FFF78AFC00
:1014100040E6FFF797FD3DE60348FFF725F839E67C
:10142000C5130020D49A0200B49A020018ADB8493E
:10143000DFF85C834422284621F03EFC2846FFF773
:1014400013F8B44BB44A1B68C821284621F086FF24
:101450002846FFF709F898F90030B04AC821284615
:1014600021F07CFF2846FEF7FFFFAD4AAD4B127816
:101470001B680092C821AC4A284621F06FFF28461D
:10148000FEF7F2FFA949AA4A8F784B78CE780C79FB
:10149000487991F809C091F80AE091F806B091F8FE
:1014A00007A091F808900097CF7A01960E7B0294DE
:1014B0004C7B0390C87B897B0D91CDF81CC0CDF887
:1014C00020E00C90C821CDF810B0CDF814A0CDF8D4
:1014D000189009970A960B94284621F03FFF28465A
:1014E000FEF7C2FF934B1B781BB1934B1B7883F025
:1014F00001039249924A096812680292009301918D
:10150000904A914C914FC8211E23284621F026FF76
:101510002846FEF7A9FF98F81D308D4AC8212846B5
:1015200021F01CFF2846FEF79FFF8A498A4AB1F93D
:101530000030B1F9021000912846C82121F00EFFB9
:101540002846FEF791FF206820F0FCF9CDE9000164
:101550006068824C20F0F6F9814ACDE90201C82189
:10156000284621F0FBFE2846FEF77EFF7D497E4A95
:1015700091F9003091F9011000912846C82121F01D
:10158000EDFE2846FEF770FF78497122284621F0CB
:1015900093FB2846FEF768FF75494F22284621F045
:1015A0008BFB2846FEF760FF72498A22284621F00D
:1015B00083FB2846FEF758FF6F48FEF755FF6F493B
:1015C0005C22284621F078FB2846FEF74DFF0FCC21
:1015D0002E460FC60FCC0FC60FCC0FC62368337034
:1015E0002846FEF741FFDFF8ACE1BEE80F002C46CD
:1015F0000FC4BEE80F000FC49EE80F0007C424F814
:10160000023B1B0C23702846FEF72EFFDFF888E113
:10161000BEE80F002C460FC4BEE80F000FC4BEE8A2
:101620000F000FC4DEF8003024F8023B1B0C2370BF
:101630002846FEF719FF52495B22284621F03CFB61
:101640002846FEF711FFD8F818304E4AC821284620
:1016500021F084FE2846FEF707FF98F81C304A4A1E
:10166000C821284621F07AFE2846FEF7FDFE4749AC
:101670005122284621F020FB2846FEF7F5FEDFF830
:101680001CE1BEE80F002C460FC4BEE80F000FC4DB
:101690009EE8070003C424F8022B120C227028468F
:1016A000FEF7E2FEDFF8F8E0BEE80F002C460FC4BC
:1016B000BEE80F000FC49EE80F0084E80F00284624
:1016C000FEF7D2FEDFF8DCC0BCE80F00AE46AEE8A5
:1016D0000F00BCE80F00AEE80F009CE80700AEE882
:1016E00003002846AEF80020FEF7BEFEDFF8B8E0A3
:1016F000BEE80F00A846A8E80F00BEE80F00A8E863
:101700000F009EE80F00A8E8070028464EE000BF43
:10171000FC9A0200F498FF1F409B0200A49B020069
:101720004888FF1F3C88FF1F049C0200CC9CFF1FC1
:101730004C9C0200719DFF1F709DFF1F6C9DFF1F41
:10174000689DFF1FE89C0200C82F00207C2E00200F
:10175000309D02008C2F0020649D020014A0020026
:101760009C9D0200882F0020DC9D0200189E020034
:101770008C9E0200DC9E0200689F0200B89F02005F
:10178000ACA0020008A1020044A1020080A1020056
:101790004C98FF1F48A0020078A00200D4A10200CC
:1017A00000A2020030A202005CA20200A8F80030F1
:1017B000FEF75AFEDFF850C3BCE80F00AE46AEE8B5
:1017C0000F00BCE80F00AEE80F00DCF800302EF888
:1017D000023B1B0C8EF800302846FEF745FE3846CB
:1017E0000FF0CCFC97F8C82000920346C821AD4A00
:1017F000AD4F284621F0B2FD2846FEF735FE0FCF4B
:10180000AE46AEE80F000FCFAEE80F0097E80F002E
:10181000A64F84E80F002846FEF726FE0FCF2C4681
:101820000FC40FCF0FC497E80F00A14F07C4A8F84B
:1018300000302846FEF718FE0FCF2C460FC40FCFFE
:101840000FC40FCF0FC497E8070003C42270994C50
:101850002846FEF709FE0FCC2F460FC70FCC0FC747
:101860000FCC0FC794E8030086E803002846FEF774
:10187000FBFD914E91495C22284621F01DFA284635
:10188000FEF7F2FD0FCE2C460FC40FCE0FC496E824
:101890000F0007C4A8F800302846FEF7E5FD884988
:1018A000884E4F22284621F007FA2846FEF7DCFD35
:1018B000854B864A1B78C821284621F04FFD2846D3
:1018C000FEF7D2FD82494C22284621F0F5F9284640
:1018D000FEF7CAFD0FCE2C460FC496E8070084E839
:1018E00007002846FEF7C0FDFFF7D4BB601D0021AE
:1018F0000A2223F063FE744B003018BF01201870D9
:10190000FFF7C8BB73480FF03FFCFFF7C3BB211DB7
:1019100070480FF0BBFAFFF7BDBB08F035FAFFF7D0
:10192000B9BB6D4811F000F9FFF7B4BB6A4811F07C
:10193000C3F8FFF7AFBB601C0A2223F03FFE40B2A2
:1019400000F064FEFFF7A6BB043418AD204629461C
:101950000A2223F033FE06462868844200F09F8066
:10196000071C18BF012729460A2223F027FE2B68EF
:101970009C420FD073B16FB1002EFFF68BAB0028E5
:10198000FFF688AB02B231B252480FF03DFB00289F
:101990007FF480AB5148FEF767FDFFF77BBB5048F3
:1019A000FEF762FDFFF776BBA11D4A480FF0B4FCBD
:1019B000FFF770BB4B49042222F0AAFA002860D03E
:1019C00020464949052222F0A3FA00285FD020468C
:1019D0004649052222F09CFA002800F0DC802046CF
:1019E0004349032222F094FA002840F08F80E51C3E
:1019F00028463D4922F080FC68B13E4BB3F90030E7
:101A000013B93D4B00225A610020012105F098FFD7
:101A10003A4B01221A702846324922F06DFC002808
:101A200000F0BD8005F0DEFFFFF734BB344C2060D2
:101A3000E060206112F062FB3248FEF715FD20469F
:101A4000314608F0E7FBFFF725BB22480FF044FBC7
:101A5000FFF720BB2A4C18AB204601212360E6602B
:101A6000266108F0D7FB20463146324608F0E4FAFA
:101A70002660FFF70FBB0146214808F06FFCFFF717
:101A800009BB1D4B012258779A77FFF703BB1A4B0E
:101A90000122DA77FFF7FEBA0121FFF787BB0027A3
:101AA00061E700BFB0A2020008A3020038A3020051
:101AB00068A30200A4A3020038A40200DCA3020071
:101AC00068A4020044A50200C5130020B8A40200C7
:101AD000F8A402007C2E002044300020509A02001E
:101AE000909A020084A502008CA5020094A5020031
:101AF0009CA50200F098FF1F4C98FF1F4888FF1F0D
:101B0000C412002064A502008CA202002046AE4947
:101B1000042222F0FDF9002800F010812046AB4994
:101B2000042222F0F5F9002800F0F5802046A849AB
:101B3000042222F0EDF9002800F0C0802046A549DB
:101B4000032222F0E5F9002800F0B3802046A249E4
:101B5000052222F0DDF9002800F02E8120469F4961
:101B6000032222F0D5F9002800F0FB803A2D204610
:101B700000F026819A49042222F0CAF900283DD1BA
:101B80002379202B1DD03D2B1BD0964B012283F8AF
:101B90009421FFF77FBA10F0CFFAFFF77BBA2846FF
:101BA000914921F00FFE90B1904B914A1B680121A1
:101BB0005177002B7FF46EAA8E48FEF755FCFFF795
:101BC00069BA611D874811F025F8FFF763BAE57817
:101BD0008949B5F12B0304345D4220464FF00302DE
:101BE0005D4122F06BF9002840F03F81834B5D702E
:101BF0004FF47A7007F052FBFFF74CBA2046804949
:101C0000042222F085F9002834D12379202B01D039
:101C10003D2B43D1631D18460A220EA90E9323F0D3
:101C2000CDFC0E9B1A78202A054601D02C2A15D10E
:101C3000013300211A4600910E9329460123694879
:101C400011F0F2FA00942B4618A864216D4A21F095
:101C500085FB18A8FEF708FCFFF71CBA03460094A2
:101C600018A86421684A21F079FB18A8FEF7FCFB4C
:101C7000FFF710BA204622F0F1F8012803467FF65C
:101C800009AA6421614A009418A821F067FB18A8EA
:101C9000FEF7EAFB17F068FCFFF7FCB9234618A82B
:101CA00064215B4A21F05AFB18A8FEF7DDFBFFF721
:101CB000F1B9201D10F04CFAFFF7ECB904342046BE
:101CC00018A9189423F0D8FB18A90546189823F0F2
:101CD000D3FB50490446284620F084FCC8B9284666
:101CE0004D4920F061FC00B14B4D2046494920F0A0
:101CF00079FC60B92046484920F056FC00B1464CBA
:101D0000464B1D605C6000F09BFBFFF7C3B9414C84
:101D1000F6E7404DE9E7043418A920460A22189452
:101D200023F04CFC18A904460A22189823F046FC1C
:101D3000014620460FF0B4FBFFF7ACB9043418A9F4
:101D400020460A22189423F039FC18A904460A22D6
:101D5000189823F033FCC1B2E0B20FF075FBFFF727
:101D600099B90EA821F0F0F8214A0E9B116A009152
:101D700018AC143201926421294A0294204621F0C1
:101D8000EDFA2046FEF770FB264B00936421264AAD
:101D9000264B204621F0E2FA2046FEF765FB0123A0
:101DA000009320466421224A882321F0D7FA204656
:101DB000FEF75AFBFFF76EB91E4B1870FFF76AB9B2
:101DC00022F04CF8034638E010A6020018A60200E4
:101DD00020A6020028A602002CA6020034A60200BB
:101DE000BCA6020044300020849A02006C9DFF1FB4
:101DF0004C98FF1FA0A50200B4A50200CC9CFF1FB9
:101E0000C4A60200CCA60200F4A6020040A702006D
:101E100024A702000000C0400000C0C0C82F00205E
:101E200038A60200A312002064A60200749DFF1FC2
:101E300088A60200E62F0020013BE21812F8011CE0
:101E40001F29F9D90A210D20661C0025E054517084
:101E50009570304622F002F80146304614F078FDC5
:101E6000464B83F8B151FFF715B920464449032288
:101E700022F024F810B9434B9D70B9E62046424940
:101E8000042222F01BF810B93E4BDD70B0E620466C
:101E90003E49042222F012F810B93A4B5D71A7E6D0
:101EA00020463B49042222F009F810B9354B1D7138
:101EB0009EE620463749042222F000F810B9314B43
:101EC0009D7195E620463449032221F0F7FF10B9B1
:101ED0002C4BDD718CE620463049042221F0EEFFC8
:101EE00010B9284B1D7283E620462D49022221F0AD
:101EF000E5FF10B9234B5D727AE62046294904229A
:101F000021F0DCFF10B91F4B9D7271E62046264977
:101F1000042221F0D3FF10B91A4BDD7268E6204687
:101F20002249042221F0CAFF10B9164B1D735FE647
:101F300020461F49032221F0C1FF10B9114B5D73E8
:101F400056E620461B49022221F0B8FF10B90D4B7E
:101F50009D734DE620461849032221F0AFFF10B9CA
:101F6000084BDD7344E620461449052221F0A6FF04
:101F700000287FF43DAE034B1D7439E64430002049
:101F8000B8A50200CC9CFF1FBCA50200C4A502009E
:101F9000CCA50200D4A50200DCA50200E0A5020049
:101FA000E8A50200ECA50200CCE00200F4A50200C6
:101FB000FCA5020000A6020004A6020008A602007A
:101FC00030B51F2891B00546394C05D9636AE2182F
:101FD0006C2B82F828000DDD94F90030012B13D012
:101FE0000A2D636A16D00D2D14D06C2B304C43DCB7
:101FF00011B030BD0133E218636294F90030002162
:10200000012B82F82810EBD1284617F083FB0A2D0C
:10201000636AE8D1002B264D26DD2B44002283F88D
:10202000282005F128002349052221F071FF30B155
:1020300005F128002049062221F06AFF30BB1F4B22
:10204000588820F0BBF81FF07DFC17A3D3E90023CC
:102050001FF0F6FD1A4ACDE9000103A8322121F054
:102060007DF903A8FEF700FA94F90030012B14D093
:102070000023636211B030BD23440025114883F86A
:102080002850FEF7F1F9656211B030BD05F1280066
:102090004FF0FF31FEF7F0FFE6E70B48FEF7E4F9FB
:1020A000E6E700BFAFF3008000000000006AF840E0
:1020B0004C98FF1F64A702006CA70200CC130020FD
:1020C00074A7020094A702008CA7020010B50A248E
:1020D00082B001E0013C0CD017F0A8F90028A0F173
:1020E0000A0306DB752BF5D8C0B2FFF769FF013C88
:1020F000F2D10A2401E0013C16D014F0B1FC002812
:1021000000F1FF3310DB7E2BF5D8C1B26A461048D0
:1021100001AB11F0F1F80028EDD000989DF9041002
:10212000FEF7AAFF013CE8D1094B93F8B221013A2E
:10213000012A0AD80749D3F8902109688A1AB2F50A
:102140007A7F84BF042283F8B22102B010BD00BFA1
:1021500044300020941300202DE9F04782B08846D7
:10216000054621F07BFE534A92F9002001320646D3
:102170000AD0514F3C7823060DD42146042924D996
:10218000012002B0BDE8F0872B78232BF8D04A4F0E
:102190003C782306F1D5B8F1000F21D0002E5CDD8C
:1021A000AA46B14617F0C2FA0028FBDD8145B4BF4C
:1021B0004C460446C4EB09092146504617F0F0F995
:1021C000B9F1000F4BDDA244ECE7002049B20090CA
:1021D0002A463346394811F027F802B0BDE8F087A7
:1021E0003146284617F0DCF939784BB20233C5D1B5
:1021F000AB1913F8013C0A2BC2D1042EC0DD2F4BC2
:1022000093F89521B8F1000F3FD11AB1032A2BD0D2
:10221000022A26D093F896211AB1032A2ED0022A38
:1022200029D093F897211AB1032A2CD0022A27D05B
:1022300093F898211AB1032A1BD0022A16D093F8DA
:102240009931002B9CD0032B04D0022B98D12B78F2
:10225000232B95D004210020B9E72146C5E7397822
:10226000C3E72A78232AD5D00021F4E72A78232A45
:10227000E5D00321EFE72A78232AD2D00121EAE72B
:1022800029782329D4D00221E5E7002AECD193F85C
:102290009621002AF2D193F89721002AF3D193F8DE
:1022A0009821002AE5D193F89931002B3FF468AFCB
:1022B000D0E700BF4C98FF1F6C87FF1F4430002001
:1022C00030B5574BB3F9003083B03BB1554B1B7F52
:1022D00023B9554B1B78CBB103B030BD524B1B78A3
:1022E000A3B1504CD4F898300133DA07C4F89830D1
:1022F0002DD503EBD3735B10082B00F28780DFE84A
:1023000003F04C585E63686D72777D00474B484C14
:102310001B68A4FB0324A4094FF47A7202FB143453
:10232000002CD9D13F4B93F900300133D4D0414D2B
:102330002A78130610D411460429CDD8002349B2B7
:1023400000933D4A3D481B2310F06EFFC4E703B0E5
:10235000BDE83040FEF7E6BC1B21374817F020F9F6
:1023600029784BB20233E7D1344B93F89521032AF5
:102370004AD093F89621032A4CD093F89721032A48
:102380004CD093F89821032A46D093F89931032B27
:1023900008BF0421A0D10023D2E74FF0FF3000F0A6
:1023A00035F9002898D0D4F89830023BC4F898301A
:1023B00092E7002003B0BDE8304000F0B5B803B0AC
:1023C000BDE8304007F092BC03B0BDE830400FF0EC
:1023D00095BF03B0BDE8304009F08CBD03B0BDE847
:1023E000304007F0D1BC03B0BDE83040FEF7AABDD5
:1023F000124803B0BDE8304010F05EBB0F4803B098
:10240000BDE8304010F090BB2146C4E70023C4F87B
:10241000983061E70121BEE71146BCE70221BAE727
:10242000F098FF1F4C98FF1FE62F00209413002008
:10243000D34D62106C87FF1FB0A70200443000200C
:10244000334B2DE9F0471888324F1FF0BBFE32495D
:102450001FF00CFF0446014630481FF0BBFF8146C9
:1024600020461FF06FFA0B46024627A1D1E9000172
:102470001FF0E6FB1FF054FD294B3E681C688046A8
:102480002146304620F0AEF850B33C6004F10045E0
:1024900026467F68DFF87CA03946204620F084F885
:1024A00060BB3846294620F07FF820B305F1004391
:1024B000CAF804501D46314648461FF0D7FE20F0AA
:1024C0009BF8294600EB080448461FF0CFFE20F099
:1024D00093F800EB08012046BDE8F0470EF0E0BF9E
:1024E00004F100452946304620F05EF80028D0D09F
:1024F0003D602E46CDE707F10045DCE7CAF8044011
:10250000D9E700BFAFF300800000002085EB6140F9
:10251000AC130020C82F00209A99013B1D5A844417
:10252000E48DFF1FAFF300802DE9F0410646A4B013
:10253000314C324D18B963682A6893424BD0B4F9D4
:1025400000E06368277A05EB83022D4992680878DA
:1025500094F91510CDF800E0049702920390294AEF
:10256000019106A8782120F0F9FE002106A8FFF7C6
:10257000F3FDE368226994F814C094F80880616858
:102580000091181C18BF01209A1A18BF0122B8EB3D
:102590000C0118BF0121B4F900E0B4F916700390E2
:1025A000334604920591184ACDF804E0782106A834
:1025B000029720F0D3FE002106A8FFF7CDFD626848
:1025C000B4F90000E368217A2A606860236121750C
:1025D00024B0BDE8F081B4F9002069688A42AED128
:1025E000E1680029F4D020698142A8D1277A217DB1
:1025F000B942EDD09646A6E7F098FF1F7487FF1FFB
:102600006898FF1FD4A70200F0A7020070B5A34C82
:10261000431C01BF207E013040B220760138DCB07F
:102620000C2800F28E83DFE810F06E00B300F0009B
:1026300045019101DA012E025F028502BB020A0305
:1026400052030D00D4F8B0011FF07CF9CDE9000170
:10265000D4F8B4011FF076F9CDE90201D4F8B8013D
:102660001FF070F9CDE90401D4F8C0011FF06AF938
:10267000CDE90601D4F8C4011FF064F9CDE90801E1
:10268000D4F8C8011FF05EF9CDE90A01D4F8D001F1
:102690001FF058F9CDE90C01D4F8D4011FF052F91C
:1026A000CDE90E01D4F8D8011FF04CF9CDE91001A5
:1026B000D4F8DC011FF046F9CDE91201D4F8E001AD
:1026C0001FF040F9CDE91401D4F8E8011FF03AF900
:1026D000CDE91601D4F8EC011FF034F9CDE9180169
:1026E000D4F8F0011FF02EF96D4ACDE91A01FA2154
:1026F0001DA820F033FE1DA80021FFF72DFD94F941
:1027000018005CB070BD674D667EA86C1FF01AF9AA
:10271000CDE90001E0691FF015F9CDE90201206A59
:102720001FF010F9CDE90401606A1FF00BF9CDE943
:102730000601A06A1FF006F9CDE90801E86C1FF058
:1027400001F9CDE90A01286D1FF0FCF8CDE90C0173
:10275000686D1FF0F7F8CDE90E01A86D1FF0F2F8D3
:1027600094F82C301293CDE91001206B1FF0EAF899
:102770004D4ACDE9140133461DA8FA2120F0EEFDA3
:102780001DA80021FFF7E8FC94F918005CB070BDAB
:10279000444D94F83460E86D1FF0D4F8CDE90001A1
:1027A000A06B1FF0CFF8CDE90201E06B1FF0CAF873
:1027B000CDE90401206C1FF0C5F8CDE90601606C7D
:1027C0001FF0C0F8CDE90801286E1FF0BBF8CDE975
:1027D0000A01686E1FF0B6F8CDE90C01A86E1FF073
:1027E000B1F8CDE90E01E86E1FF0ACF894F848306E
:1027F0001293CDE91001E06C1FF0A4F83346CDE947
:1028000014012A4A1DA8FA21B8E7264D286F1FF0A7
:1028100099F8CDE90001206D1FF094F8CDE902018F
:10282000606D1FF08FF8CDE90401A06D1FF08AF8EC
:10283000CDE90601E06D1FF085F8CDE90801686F6C
:102840001FF080F8CDE90A01A86F1FF07BF8CDE9F1
:102850000C01E86F1FF076F8CDE90E01D5F8800085
:102860001FF070F894F860301293CDE91001606E9B
:102870001FF068F895F8842094F868301792CDE935
:1028800014011693FA210A4A1DA820F067FD1DA81D
:102890000021FFF761FC94F9180032E7F098FF1F60
:1028A00008AA02007487FF1F10A802003CA80200BB
:1028B00068A80200B24DE66ED5F888001FF042F815
:1028C000CDE90001206F1FF03DF8CDE90201606FF6
:1028D0001FF038F8CDE90401A06F1FF033F8CDE9FF
:1028E0000601E06F1FF02EF8CDE90801D5F88C0045
:1028F0001FF028F8CDE90A01D5F890001FF022F862
:10290000CDE90C01D5F894001FF01CF8CDE90E01BB
:10291000D5F898001FF016F8CDE9100194F8802042
:10292000984B13921868002512951FF00BF8334648
:10293000CDE91401944AFA211DA820F00FFD1DA82D
:102940002946FFF709FC94F91800DAE68C4DD4F813
:102950008460D5F89C001EF0F5FFCDE90001D4F8A5
:1029600088001EF0EFFFCDE90201D4F88C001EF0C4
:10297000E9FFCDE90401D4F890001EF0E3FFCDE9B2
:102980000601D4F894001EF0DDFFCDE90801D5F86A
:10299000A0001EF0D7FFCDE90A01D5F8A4001EF073
:1029A000D1FFCDE90C01D5F8A8001EF0CBFF94F8BB
:1029B00098301093CDE90E01D4F89C001EF0C2FFB0
:1029C0003346CDE91201714AFA211DA820F0C6FC58
:1029D0001DA80021FFF7C0FB94F9180091E6D4F878
:1029E000A4001EF0AFFFCDE90001D4F8A8001EF04E
:1029F000A9FFCDE90201D4F8AC001EF0A3FFCDE998
:102A00000401D4F8B4001EF09DFFCDE90601D4F80E
:102A1000B8001EF097FFCDE90801D4F8BC001EF005
:102A200091FFCDE90A01D4F8C4001EF08BFFCDE977
:102A30000C01D4F8C8001EF085FFCDE90E01D4F8D2
:102A4000CC001EF07FFFCDE91001D4F8D4001EF0B9
:102A500079FFCDE91201D4F8D8001EF073FFCDE95B
:102A60001401D4F8DC001EF06DFF494ACDE91601CF
:102A7000FA211DA820F072FC1DA80021FFF76CFBB5
:102A800094F918003DE6D4F8E4001EF05BFFCDE9B0
:102A90000001D4F8E8001EF055FFCDE90201D4F89A
:102AA000EC001EF04FFFCDE90401D4F8F4001EF055
:102AB00049FFCDE90601D4F8F8001EF043FFCDE947
:102AC0000801D4F8FC001EF03DFFCDE90A01314AAF
:102AD0001DA8FA2120F042FC1DA80021FFF73CFBB5
:102AE00094F918005CB070BDD4F804011EF02AFF00
:102AF000CDE90001D4F808011EF024FFCDE9020160
:102B0000D4F80C011EF01EFFCDE90401D4F8140125
:102B10001EF018FFCDE90601D4F818011EF012FFCF
:102B2000CDE90801D4F81C011EF00CFF1A4ACDE9CA
:102B30000A01CDE7D4F824011EF004FFCDE900011D
:102B4000D4F828011EF0FEFECDE90201D4F82C01D4
:102B50001EF0F8FECDE90401D4F834011EF0F2FEB7
:102B6000CDE90601D4F838011EF0ECFECDE90801EC
:102B7000D4F83C011EF0E6FE084ACDE90A01A7E7B9
:102B80007487FF1FE48DFF1F98A80200C8A80200E9
:102B9000F0A8020030A9020050A9020070A90200AA
:102BA000694DD4F84061D5F8AC001EF0CBFECDE9FC
:102BB0000001D4F844011EF0C5FECDE90201D4F8AD
:102BC00048011EF0BFFECDE90401D4F84C011EF00F
:102BD000B9FECDE90601D4F850011EF0B3FECDE9EF
:102BE0000801D5F8B0001EF0ADFECDE90A01D4F819
:102BF00054011EF0A7FECDE90C01D4F858011EF0D7
:102C0000A1FE95F8B42094F85C311092CDE90E0144
:102C1000D4F8600111931EF095FE95F8B530149329
:102C2000CDE912013346FA21484A1DA820F096FB4F
:102C30001DA80021FFF790FA94F9180061E5D4F877
:102C4000680194F864511EF07DFECDE90001D4F8CE
:102C50006C011EF077FECDE90201D4F870011EF080
:102C600071FECDE90401D4F874011EF06BFECDE9CC
:102C70000601D4F878011EF065FECDE90801D4F80C
:102C80007C011EF05FFECDE90A01D4F880011EF040
:102C900059FECDE90C01D4F884011EF053FECDE9B4
:102CA0000E01D4F888011EF04DFED4F88C2112924A
:102CB000CDE910012B46FA21254A1DA820F04EFB34
:102CC0001DA80021FFF748FA94F9180019E51E4BDA
:102CD000D3F8B8001EF036FECDE90001D4F890011B
:102CE0001EF030FECDE90201D4F894011EF02AFE58
:102CF000CDE90401D4F898011EF024FECDE90601C7
:102D0000D4F89C011EF01EFECDE90801D4F8A00104
:102D10001EF018FE94F8A4310C93CDE90A01D4F802
:102D2000A8011EF00FFE0B4ACDE90E01FA211DA8E5
:102D300020F014FB1DA80021FFF70EFA94F91800EB
:102D4000DFE400202076DCE47487FF1F90A90200F6
:102D5000C0A90200E8A9020070B5474CB4F90030E0
:102D600094B0042B79D8DFE803F0663B17780300B2
:102D7000424B1B781BB1424B1B78002B70D0414A51
:102D800000231068C4F8F43140F2E7310022002338
:102D90002180CDE9002314E03A4B3B4E1D68D6F864
:102DA0008C1028461FF01EFC00285BD0D6F894003B
:102DB000C4F8F401042323801EF0C4FDCDE9000112
:102DC00028461EF0BFFD314ACDE9020105A83C218D
:102DD00020F0C4FA05A80021FFF7BEF914B070BDB9
:102DE000284D4FF07E5128681FF0FCFB002837D09B
:102DF00000232B600FF0A0F9254B0121186804F087
:102E00009FFD214BD3F89000C4F8F4011EF09AFD09
:102E1000204ACDE9000105A83C2120F09FFA05A831
:102E20000021FFF799F9012001460EF00DFB022366
:102E3000238014B070BD184B1B7813B9174B1B7847
:102E400073B1104A0023136000210122C4F8F43149
:102E500084F8F811228014B070BD114B01221A7051
:102E600014B070BD054B1B78002B9FD0044B1B7812
:102E7000002B9BD1F4E700BFF098FF1F719DFF1F4F
:102E8000709DFF1F6098FF1F7487FF1F74AA0200C8
:102E90003C88FF1F50AA02005098FF1F6B98FF1F2D
:102EA0006A98FF1F70B54D4CB4F9003094B0042BF4
:102EB00000F28680DFE803F06A3B17840300484B8A
:102EC0001B781BB1474B1B78002B7CD0464A002354
:102ED0001068C4F8FC3140F2E73100220023218061
:102EE000CDE9002314E0404B404E1D68D6F8A010F9
:102EF00028461FF077FB002867D0D6F8A800C4F852
:102F0000FC01042323801EF01DFDCDE900012846AD
:102F10001EF018FD364ACDE9020105A83C2120F03B
:102F20001DFA05A80021FFF717F914B070BD2E4D4A
:102F30004FF07E5128681FF055FB002843D0002336
:102F40002B600FF0F9F82B4A2B4B10681B68C4F864
:102F50000832012104F0F4FC244BD3F8A400C4F897
:102F6000FC011EF0EFFC254ACDE9000105A83C213B
:102F700020F0F4F905A80021FFF7EEF80120014642
:102F80000EF062FA0223238014B070BD1C4B1B7834
:102F900013B91C4B1B78B3B1174B13481A68C4F80C
:102FA00008220023002101220360C4F8FC31C4F888
:102FB0000032C4F8043284F8F811228014B070BDD5
:102FC000114B01221A7014B070BD054B1B78002BF9
:102FD00093D0044B1B78002B8FD1F4E7F098FF1FA0
:102FE000719DFF1F709DFF1F6098FF1F7487FF1F5B
:102FF000C4AA02003C88FF1F0C300020A0AA0200D7
:103000005098FF1F6B98FF1F6A98FF1F2DE9F04132
:10301000284CB4F9005092B05DB1012D06D1264E76
:103020004FF07C5130681FF0DDFA00BB12B0BDE8F4
:10303000F081224B224D1B7813B92B78002BF5D051
:1030400063681D491F4A002008600026A3F10A0199
:10305000009103A801273C212E70278020F07EF9E3
:1030600003A83146FFF778F812B0BDE8F0810023DD
:10307000676833600026A7F10A01324612482680AD
:1030800007F098FA3C218046104A636803A820F0B4
:1030900065F903A83146FFF75FF8B8F1000FC5D016
:1030A0000A2F074BD4BF0027012784F80C721D702C
:1030B000BCE700BFF098FF1F6098FF1F5098FF1FEC
:1030C0006B98FF1FF0AA0200C41200201CAB020084
:1030D00070B5404CB4F90030062B69D8DFE803F036
:1030E000144A2A683B6804003B4B1B781BB13B4BDE
:1030F0001B78002B6CD0002340F2E632C4F810326B
:10310000C4F8F431228070BD354B1B781BB9354BA8
:103110001B78002BF7D0344B00251D600FF00CF806
:1031200001220023C4F81052C4F8F451228084F81C
:10313000F83170BD2C4B2D4D1868E96C1FF052FA18
:10314000002839D1244B1B78002B35D0234B1B781A
:10315000002B31D170BD244A244B1068196D1FF02B
:1031600041FA00282ED11C4B1B785BB31B4B1B78FC
:1031700043BB70BD1C4D4FF07E5128681FF032FAE2
:103180000028C0D000262E600EF0D6FF184B01217B
:10319000186804F0D5FB154BC4F8106201209B6D34
:1031A000C4F8F43101460EF04FF90223238070BDBC
:1031B000104B01221A7070BD6B6DC4F810320423DD
:1031C000238070BD062200232280C4F8103270BD17
:1031D00070BD00BFF098FF1F719DFF1F709DFF1F06
:1031E0005098FF1F6B98FF1F6098FF1F7487FF1F89
:1031F0003C88FF1F6A98FF1F38B5374CB4F9003080
:10320000062B53D8DFE803F03A1E0D525252040049
:10321000324B1B78002B4DD0314B1B78002B49D102
:1032200038BD304B304D1868296E1FF0DBF900288F
:103230004BD12A4B1B78002B47D0294B1B78002BF6
:1032400043D138BD274D4FF07E5128681FF0CAF991
:10325000002839D000232B600EF06EFF234B012194
:10326000186804F06DFB204B0120DB6EC4F8F431CC
:1032700001460EF0E9F80223238038BD1C4B1B7871
:1032800013B91C4B1B78FBB1164B00251D600EF0CB
:1032900053FF154BC4F8F45193F8BD105A6E83F8E0
:1032A000BC100123C4F81422238038BD124B012224
:1032B0001A7038BD00230C4AC4F81432012140F2C0
:1032C000E63382F8BC10238038BDAB6EC4F81432EC
:1032D0000623238038BD00BFF098FF1F719DFF1F9C
:1032E000709DFF1F6098FF1F7487FF1F3C88FF1FA2
:1032F0005098FF1F6B98FF1F6A98FF1F38B5394C15
:10330000B4F90030062B59D8DFE803F03E1E0D5803
:1033100058580400344B1B78002B53D0334B1B7888
:10332000002B4FD138BD324B324D1868696F1FF0FA
:1033300059F9002850D12C4B1B78002B4CD02B4B2B
:103340001B78002B48D138BD294D4FF07E5128689D
:103350001FF048F900283ED000232B600EF0ECFE51
:10336000254B0121186804F0EBFA224B0120996FDC
:10337000D3F88020C3F8C0100146C4F8F4210EF041
:1033800063F80223238038BD1C4B1B7813B91C4BF8
:103390001B7803B3164B00251D600EF0CDFE154BB8
:1033A000C4F8F4519A6F93F88410C3F8C020012236
:1033B00083F8C410228084F8182238BD114B0122F2
:1033C0001A7038BD0B4A0023C2F8C03040F2E63212
:1033D000C4F8F431228038BD0622EB6F2280C5F894
:1033E000C03038BDF098FF1F719DFF1F709DFF1FFB
:1033F0006098FF1F7487FF1F3C88FF1F5098FF1FB6
:103400006B98FF1F6A98FF1F38B5254DB5F900402E
:10341000012C23D013DD022C0AD040F2E6339C426B
:1034200002D10023C5F8F4311E4B01221A7038BDB9
:103430001D4B1B7813B340F2E6332B8038BD002CB4
:10344000F2D1194B1B781BB9184B1B78002BEED00F
:10345000174B00221A6001232B8038BD144B4FF00C
:103460007E5118681FF0BEF80028E0D011480DF01A
:103470002FFA68B940F2E7332B8038BD0D480CF0C5
:10348000E5FE0028D7D1074B1B78002BCFD0D2E721
:103490000223204621462B80BDE838400DF0D4BFE2
:1034A000F098FF1F6A98FF1F5098FF1F6B98FF1F2F
:1034B0006098FF1F7C2E002038B52D4CB4F90030E9
:1034C000032B50D8DFE803F03D210B02294B1B787A
:1034D000002B44D0284B1B78002B40D138BD254B06
:1034E0001B785BB1244B1B7843B9244A244B1068EA
:1034F000D3F8B0101FF076F8002833D0D4F8583144
:10350000C4F8F4310323238038BD1C4D4FF07E51A5
:1035100028681FF067F828B300232B600EF00CFE1C
:10352000184AD4F854311068C4F8F431012104F079
:1035300007FA0223012023800146BDE838400DF040
:1035400083BF114B1B7813B9104B1B7853B10B4B36
:1035500000221A600123238084F8193238BD40F21A
:10356000E733238038BD0A4B01221A7038BD00BFF3
:10357000F098FF1F719DFF1F709DFF1F6098FF1F38
:103580007487FF1F3C88FF1F5098FF1F6B98FF1F19
:103590006A98FF1F70B54D4CB4F90030032B6BD8FF
:1035A000DFE803F0582C0B02494B1B78002B5FD04F
:1035B000484B1B78002B5BD170BD454B1B7853B13A
:1035C000444B1B783BB9444BD4F8801118681FF06A
:1035D00009F800284FD0D4F88C213C4B002A4FD05A
:1035E000012A69D10022D3F88811C3F8F411C3F875
:1035F000FC21C3F81C220323238070BD364D4FF0FD
:103600007E5128681EF0EEFF002834D000210026ED
:1036100032482E60FEF7A0FD0EF08EFDD4F88C210E
:103620002A4B002A3FD0012A34D0D3F88421C3F892
:10363000F461C3F8FC61C3F81C22294B012118680E
:1036400004F07EF90120022323800146BDE870408A
:103650000DF0FABE234B1B7813B9234B1B7853B1E3
:103660001D4B00221A600123238084F8193270BD9B
:1036700040F2E733238070BD1C4B01221A7070BDED
:103680000022D3F88811C3F8F421C3F81C22C3F830
:10369000FC11B0E7D3F88421C3F8FC61C3F81C62C5
:1036A000C3F8F421C9E7D3F88421C3F8F461C3F85F
:1036B0001C62C3F8FC21C0E70022D3F88811C3F8CC
:1036C000F421C3F8FC21C3F81C1294E7F098FF1F03
:1036D000719DFF1F709DFF1F6098FF1F38AB020098
:1036E0003C88FF1F5098FF1F6B98FF1F6A98FF1FB1
:1036F0002DE9F04F83B080468946104600211446DC
:103700000D9DDDF838B00F9F1E461EF057FF0028B4
:1037100040F0A080304600211EF050FF002840F00D
:1037200099800C9800211EF049FF002840F0A680E7
:103730004FF0814130461EF099FD82465146304699
:103740001EF094FD21461EF091FD21461EF08EFDD7
:103750002146019050461EF089FD0C991EF086FD11
:103760005F491EF083FD01991EF078FC5D491EF053
:1037700075FC4FF082418246286030461EF076FD8F
:1037800031461EF073FD21461EF070FD21461EF0ED
:103790006DFD014654481EF05FFC51461EF01AFEB6
:1037A0005249686030461EF061FD21461EF05EFD04
:1037B0000C991EF05BFD4A491EF058FD0146019828
:1037C0001EF04CFC47491EF049FC51461EF002FE1B
:1037D0004749A86020461EF049FD424904461EF0B4
:1037E0003DFC41461EF042FD51461EF0F3FD3E49B0
:1037F000CBF8000040461EF039FD29681EF0EAFDB6
:103800002146CBF8040037481EF026FC41461EF046
:103810002DFD29681EF0DEFDCBF808000024484687
:1038200021461EF0DFFEF8B1494648461EF016FC60
:10383000304B386001467B6029481EF0CBFD109A62
:103840001060396826481EF0C5FD109A506003B01C
:10385000BDE8F08F00234FF07E522A606B60CBF8FA
:103860000430CBF80080D9E7109A7C604FF07E538B
:103870003B601460546003B0BDE8F08F31463046C1
:103880001EF0ECFB21461EF0F1FC154982461EF0AD
:10389000E5FB51460646286011481EF0DDFB314627
:1038A0001EF098FD2146686020461EF0D7FB0C49AB
:1038B00004461EF0D3FB41461EF0D8FC31461EF0F4
:1038C00089FD2146CBF8000005481EF0C5FB4146A6
:1038D0001EF0CCFC29681EF07DFDCBF804009DE7AE
:1038E0006F12833ABE378635BE370636000080C079
:1038F0006F12033B000080BFF8B55B6803F1004323
:1039000005460E461846496814461EF0AFFC296865
:10391000074620681EF0AAFC014638461EF09EFBB2
:103920006968074660681EF0A1FC014638461EF033
:1039300095FB3060F8BD00BF2DE9F0411F465B6884
:1039400003F1004305460E461846496814461EF02A
:103950008DFCB1688046B8681EF088FC0146404680
:103960001EF07AFB2968074620681EF07FFC01469E
:1039700038461EF073FB6968074660681EF076FCE7
:10398000014638461EF06AFBA9680746A0681EF08B
:103990006DFC014638461EF061FB3060BDE8F081E9
:1039A0002DE9F047C64C05460E4694F88090002A53
:1039B00078D0B9F1000F40F03881D4F8A400D4F8E1
:1039C0002C12C4F8386200F100401EF04FFCD4F80D
:1039D000A810074630461EF049FC014638461EF046
:1039E0003DFBD4F83C120746D4F8AC001EF03EFC78
:1039F000014638461EF032FB07460146C4F82872DD
:103A000028461EF029FBAF4BD3F888101EF02EFC81
:103A10008046D4F8B400D4F83412C4F8208200F1FF
:103A200000401EF023FCD4F8B810054640461EF0B6
:103A30001DFC014628461EF011FBD4F82412054651
:103A4000D4F8BC001EF012FC014628461EF006FB0E
:103A5000C4F83C620546C4F83002E66FDFF860A2A5
:103A6000304629461EF0A0FD002840F02D8106F1C9
:103A70000046304629461EF0B5FD002840F024815E
:103A8000B9F1000F00F02781384629461EF0E6FA0A
:103A9000C4F84002C4F82482C4F82C72C4F834522A
:103AA000BDE8F087B9F1000F74D1D4F8A400D4F8C0
:103AB0005012C4F85C6200F100401EF0D7FBD4F84D
:103AC000A810074630461EF0D1FB014638461EF0CE
:103AD000C5FAD4F860120746D4F8AC001EF0C6FB55
:103AE000014638461EF0BAFA07460146C4F84C7241
:103AF00028461EF0B1FA734BD3F888101EF0B6FBBF
:103B00008046D4F8B400D4F85812C4F8448200F1C6
:103B100000401EF0ABFBD4F8B810054640461EF03E
:103B2000A5FB014628461EF099FAD4F8481205462E
:103B3000D4F8BC001EF09AFB014628461EF08EFA0F
:103B4000C4F860620546C4F85402E66FDFF870A15D
:103B5000314628461EF046FD002840F0C18006F19F
:103B60000046314628461EF01FFD002840F0B88070
:103B7000B9F1000F00F0BB80384629461EF06EFAFE
:103B8000C4F86402C4F84882C4F85072C4F85852A9
:103B9000BDE8F0871EF060FA4A4BD3F888101EF09B
:103BA00065FBD4F850528046D4F8A400C4F844828F
:103BB000294600F100401EF059FBD4F8A810064633
:103BC00040461EF053FB014630461EF047FAD4F83B
:103BD00048120646D4F8AC001EF048FB01463046B9
:103BE0001EF03CFA0746D4F8B400D4F85812C4F8D2
:103BF0004C7200F100401EF039FBD4F8B8100646B4
:103C000038461EF033FB014630461EF027FAD4F842
:103C1000BC10064628461EF029FB014630461EF021
:103C20001DFA0546C4F854028FE71EF015FA254B1D
:103C3000D3F888101EF01AFBD4F82C528046D4F822
:103C4000A400C4F82082294600F100401EF00EFBBB
:103C5000D4F8A810064640461EF008FB0146304640
:103C60001EF0FCF9D4F824120646D4F8AC001EF07D
:103C7000FDFA014630461EF0F1F90746D4F8B400CB
:103C8000D4F83412C4F8287200F100401EF0EEFAA5
:103C9000D4F8B810064638461EF0E8FA0146304619
:103CA0001EF0DCF9D4F8BC10064628461EF0DEFAF9
:103CB000014630461EF0D2F90546C4F83002CCE683
:103CC000F098FF1F7487FF1FCAF830623546B9F1BC
:103CD000000F7FF4D9AE404629461EF0BFF9D7E663
:103CE000CAF854623546B9F1000F7FF445AF40463B
:103CF00029461EF0B3F943E72DE9F047BC4E96F88C
:103D00002C7081468846002F61D01EF0A5F98046B0
:103D10001DF018FEACA3D3E9002304460D461EF0A7
:103D2000F5F8002800F06881A9A3D3E90023204614
:103D300029461DF0A7FC1EF03BF98046AD4B4046DE
:103D4000996C1EF093FAD6F878420546D6F8C4006E
:103D5000C6F86852214600F100401EF087FAD6F8F6
:103D6000C810804628461EF081FA014640461EF0E3
:103D700075F9D6F86C128046D6F8CC001EF076FAAB
:103D8000014640461EF06AF98246D6F8D400D6F8BD
:103D90008012C6F874A200F100401EF067FAD6F84F
:103DA000D810804650461EF061FA014640461EF08B
:103DB00055F9D6F8DC10804620461EF057FA014629
:103DC00040461EF04BF90446C6F87C0293E0D6F854
:103DD00088A2C6F88412404651461EF03DF91DF0F7
:103DE000B1FD79A3D3E9002304460D461EF08EF8F9
:103DF000002800F0C78050461DF0A4FD74A3D3E94D
:103E000000231DF041FC1EF0D3F88246D6F878025C
:103E10001DF098FD6EA3D3E900231DF035FC1EF0C4
:103E2000C7F80146D6F8C430C6F88CA203F10040AA
:103E30001EF01CFAD6F8C810044640461EF016FACA
:103E4000014620461EF00AF9D6F8CC10044650462A
:103E50001EF00CFA014620461EF000F9824641464B
:103E60004846C6F874A21EF0F7F81DF06BFD56A385
:103E7000D3E9002304460D461EF048F8002800F060
:103E8000DB8048461DF05EFD51A3D3E900231DF001
:103E9000F9FB1EF08DF88146514648461EF0DCF8CD
:103EA000544BC6F87002996C1EF0E0F90546D6F83E
:103EB000D400D6F88012C6F8685200F100401EF017
:103EC000D5F9D6F8D810044628461EF0CFF9014699
:103ED00020461EF0C3F8D6F86C120446D6F8DC0073
:103EE0001EF0C4F9014620461EF0B8F8C6F88882D4
:103EF0000446C6F87C02D6F82880DFF8F4904046E5
:103F00001DF020FD34A3D3E900231DF0FFFF70B1A5
:103F1000404621461EF048FB002840F0828008F110
:103F20000048404621461EF05DFB002879D1002F55
:103F30007CD0504621461EF091F88046376BC6F87B
:103F4000908238461DF0FEFC25A3D3E90023DFF85C
:103F5000A0901DF0DBFF68B1404639461EF042FBE1
:103F600030B907F10047404639461EF01DFB08B145
:103F7000C9F89072C6F86C52C6F878A2C6F88042AA
:103F8000BDE8F0872046294617A3D3E900231DF09A
:103F90009FFF002866D050461DF0D4FC0CA3D3E947
:103FA00000231DF06FFB1EF003F88246D6F878025E
:103FB0001DF0C8FC06A3D3E900231DF063FB1DF030
:103FC000F7FF01462EE700BF182D4454FB2109409E
:103FD000182D4454FB211940F168E388B5F8E43EFC
:103FE000FCA9F1D24D62503F182D4454FB2109C069
:103FF000F098FF1F7487FF1F204629461CA3D3E9B2
:1040000000231DF065FF00283FF498AE1AA3D3E902
:104010000023204629461DF037FB1DF0C9FF8046CE
:104020008CE6C9F87C824446002F82D1284621467E
:104030001EF014F8804681E7204629460CA3D3E9F8
:1040400000231DF045FF00283FF426AF48461DF031
:1040500079FC09A3D3E900231DF016FB1DF0A8FF8E
:10406000814619E7D6F87812DCE600BFAFF300808E
:10407000182D4454FB2109C0182D4454FB2119402C
:104080002DE9F047884C94F8489005468846B9F1E8
:10409000000F00F097801DF0DFFF844BD96D1EF0FC
:1040A000E5F8D4F8A0520746D4F8E400C4F89472B6
:1040B000294600F100401EF0D9F8D4F8E810064671
:1040C00038461EF0D3F8014630461DF0C7FFD4F83D
:1040D00098120646D4F8EC001EF0C8F801463046A7
:1040E0001DF0BCFF0646D4F8F400D4F8A812C4F8BA
:1040F0009C6200F100401EF0B9F8D4F8F810804638
:1041000030461EF0B3F8014640461DF0A7FFD4F834
:10411000FC10804628461EF0A9F8014640461DF0D6
:104120009DFF0546C4F8A402D4F84480DFF878A1C6
:1041300040461DF007FC58A3D3E900231DF0E6FE1E
:1041400048B1404629461EF02FFA002800F08A8028
:10415000CAF8A4824546B9F1000F2DD03046294651
:104160001DF07CFF8146D4F84C80C4F8B4924046E0
:104170001DF0E8FB4AA3D3E90023DFF82CA11DF0D2
:10418000C5FE88B1484641461EF02CFA002876D17B
:1041900008F1004148461EF007FA28B1DAF830303D
:1041A00003F10043CAF8B432C4F89872C4F8A062AC
:1041B000C4F8A852BDE8F087384629461DF04EFFE6
:1041C0008146D0E7D4F8E400D4F8A012C4F8AC8259
:1041D00000F100401EF04AF8D4F8E81006464046C8
:1041E0001EF044F8014630461DF038FFD4F8B012F6
:1041F0000646D4F8EC001EF039F8014630461DF0B2
:104200002DFF06460146C4F89C6228461DF024FF97
:10421000264BD96D1EF02AF80746D4F8F400D4F8DE
:10422000A812C4F8947200F100401EF01FF8D4F8F0
:10423000F810054638461EF019F8014628461DF0CC
:104240000DFFD4F898120546D4F8FC001EF00EF8C5
:10425000014628461DF002FFC4F8B0820546C4F8A6
:10426000A40261E708F10048404629461EF0BAF969
:1042700000283FF470AFCAF8A48245466BE7CAF83D
:10428000B482C4F89872C4F8A062C4F8A852BDE819
:10429000F08700BFAFF30080F168E388B5F8E43E33
:1042A000FCA9F1D24D62503FF098FF1F7487FF1FA9
:1042B0002DE9F047884C94F8989005468846B9F166
:1042C000000F00F098801DF0C7FE844BD3F89C10BF
:1042D0001DF0CCFFD4F8C4520746D4F80401C4F84A
:1042E000B872294600F100401DF0C0FFD4F8081153
:1042F000064638461DF0BAFF014630461DF0AEFEB8
:10430000D4F8BC120646D4F80C011DF0AFFF0146EC
:1043100030461DF0A3FE0646D4F81401D4F8CC12A2
:10432000C4F8C06200F100401DF0A0FFD4F81811DD
:10433000804630461DF09AFF014640461DF08EFE35
:10434000D4F81C11804628461DF090FF01464046D7
:104350001DF084FE0546C4F8C802D4F89480DFF846
:1043600078A140461DF0EEFA57A3D3E900231DF0D3
:10437000CDFD48B1404629461EF016F9002800F050
:104380008B80CAF8C8824546B9F1000F2DD030465F
:1043900029461DF063FE8146D4F89C80C4F8D8926B
:1043A00040461DF0CFFA4AA3D3E90023DFF828A145
:1043B0001DF0ACFD88B1484641461EF013F90028B7
:1043C00077D108F1004148461EF0EEF828B1DAF83E
:1043D000303003F10043CAF8D832C4F8BC72C4F8D4
:1043E000C462C4F8CC52BDE8F087384629461DF0B7
:1043F00035FE8146D0E7D4F80401D4F8C412C4F8DD
:10440000D08200F100401DF031FFD4F808110646BB
:1044100040461DF02BFF014630461DF01FFED4F82C
:10442000D4120646D4F80C011DF020FF0146304698
:104430001DF014FE06460146C4F8C06228461DF071
:104440000BFE264BD3F89C101DF010FF0746D4F846
:104450001401D4F8CC12C4F8B87200F100401DF079
:1044600005FFD4F81811054638461DF0FFFE014639
:1044700028461DF0F3FDD4F8BC120546D4F81C0103
:104480001DF0F4FE014628461DF0E8FDC4F8D48274
:104490000546C4F8C80260E708F1004840462946CE
:1044A0001EF0A0F800283FF46FAFCAF8C882454656
:1044B0006AE7CAF8D882C4F8BC72C4F8C462C4F807
:1044C000CC52BDE8F08700BFF168E388B5F8E43E60
:1044D000FCA9F1D24D62503FF098FF1F7487FF1F77
:1044E0002DE9F047804C94F8609005468846B9F174
:1044F000000F00F093801DF0AFFD7C4B196F1DF095
:10450000B5FED4F8E8520746D4F82401C4F8DC72AA
:10451000294600F100401DF0A9FED4F828110646F6
:1045200038461DF0A3FE014630461DF097FDD4F835
:10453000E0120646D4F82C011DF098FE01463046E4
:104540001DF08CFD0646D4F83401D4F8F012C4F8FE
:10455000E46200F100401DF089FED4F83811804675
:1045600030461DF083FE014640461DF077FDD4F82D
:104570003C11804628461DF079FE014640461DF05C
:104580006DFD0546C4F8EC02D4F85C80DFF858A154
:1045900040461DF0D7F950A3D3E900231DF0B6FC27
:1045A00048B1284641461EF01DF8002800F08680DC
:1045B000CAF8EC824546B9F1000F29D030462946A9
:1045C0001DF04CFD8146D4F86480C4F8FC9240464E
:1045D0001DF0B8F942A3D3E90023DFF80CA11DF0C8
:1045E00095FC68B1484641461DF0FCFF30B908F122
:1045F0000048484641461DF0D7FF08B1CAF8FC8282
:10460000C4F8E072C4F8E862C4F8F052BDE8F0877C
:10461000384629461DF022FD8146D4E7D4F824010E
:10462000D4F8E812C4F8F48200F100401DF01EFE38
:10463000D4F82811064640461DF018FE01463046C3
:104640001DF00CFDD4F8F8120646D4F82C011DF02C
:104650000DFE014630461DF001FD06460146C4F838
:10466000E46228461DF0F8FC204B196F1DF0FEFD9A
:104670000746D4F83401D4F8F012C4F8DC7200F123
:1046800000401DF0F3FDD4F83811054638461DF002
:10469000EDFD014628461DF0E1FCD4F8E012054688
:1046A000D4F83C011DF0E2FD014628461DF0D6FC81
:1046B000C4F8F8820546C4F8EC0265E708F1004842
:1046C000414628461DF070FF00283FF474AFCAF839
:1046D000EC8245466FE700BFF168E388B5F8E43E39
:1046E000FCA9F1D24D62503FF098FF1F7487FF1F65
:1046F0002DE9F84F9A4C94F85C8107468946B8F149
:10470000000F00F0A080974BD3F8AC5093F8B5A001
:104710001DF0A2FC29461DF0A9FD0746C4F80003C0
:10472000BAF1000F40F09F80D4F8B001D4F80C53D8
:1047300000F1004029461DF099FDD4F8B411064659
:1047400038461DF093FD014630461DF087FCD4F835
:1047500004130646D4F8B8011DF088FD0146304622
:104760001DF07CFC0646C4F80803D4F8C001D4F858
:10477000141300F100401DF079FDD4F8C4118146F6
:1047800030461DF073FD014648461DF067FCD4F825
:10479000C811814628461DF069FD014648461DF0B6
:1047A0005DFC0546C4F81003D4F85091DFF8B0B1B1
:1047B00048461DF0C7F866A3D3E900231DF0A6FB09
:1047C00078B1484629461DF0EFFE002840F0B08041
:1047D00009F10049484629461DF004FF002840F031
:1047E000A780B8F1000F40F0AA80BAF1000F40F0A6
:1047F000A680384629461DF031FC8146D4F86081F8
:10480000C4F8209340461DF09DF853A3D3E900233C
:10481000DFF84CA11DF07AFB68B1484641461DF017
:10482000E1FE30B908F10048484641461DF0BCFEA3
:1048300008B1CAF82083C4F80473C4F80C63C4F840
:104840001453BDE8F88F474D95F8B530FBB1D5F856
:10485000AC501DF001FC29461DF008FD4FF0010A87
:104860000746C4F80003404BD4F8480119681DF00E
:10487000FDFC014628461DF0F9FC014638461DF0B6
:10488000EBFBD4F80C53C4F8080306466DE7D4F8E4
:10489000B001D4F80C13C4F8189300F100401DF0D7
:1048A000E5FCD4F8B411064648461DF0DFFC01468D
:1048B00030461DF0D3FBD4F81C130646D4F8B801DB
:1048C0001DF0D4FC014630461DF0C8FB06460146EB
:1048D000C4F8086338461DF0BFFBD5F8AC101DF0D6
:1048E000C5FC0746D4F8C001D4F81413C4F800730B
:1048F00000F100401DF0BAFCD4F8C411054638465A
:104900001DF0B4FC014628461DF0A8FBD4F80413A2
:104910000546D4F8C8011DF0A9FC014628461DF043
:104920009DFBC2460546C4F81003C4F81C933BE740
:10493000CBF810934D46B8F1000F3FF456AF304618
:1049400029461DF08BFB814658E700BFAFF300807E
:10495000F168E388B5F8E43EFCA9F1D24D62503F1E
:10496000F098FF1F7487FF1F243000202DE9F047C7
:10497000814C94F8A49105468846B9F1000F00F0E7
:1049800098801DF069FB7D4BD3F8B8101DF06EFCCC
:10499000D4F834530746D4F8D001C4F82473294618
:1049A00000F100401DF062FCD4F8D81106463846EC
:1049B0001DF05CFC014630461DF050FBD4F8281376
:1049C0000646D4F8DC011DF051FC014630461DF0CE
:1049D00045FB0646D4F8E801D4F84013C4F8306328
:1049E00000F100401DF042FCD4F8EC118046304646
:1049F0001DF03CFC014640461DF030FBD4F8F011A0
:104A0000804628461DF032FC014640461DF026FB3C
:104A10000546C4F83C03D4F8A081DFF85CA1404609
:104A20001CF090FF52A3D3E900231DF06FFA48B1A8
:104A3000404629461DF0B8FD002800F08B80CAF8DA
:104A40003C834546B9F1000F2DD0304629461DF074
:104A500005FB8146D4F8A881C4F82873C4F85093A4
:104A600040461CF06FFF42A3D3E90023424F1DF0E4
:104A70004DFA90B1484641461DF0B4FD28B1C7F843
:104A80005083C4F83463BDE8F08708F10048484615
:104A900041461DF089FD0028F1D1C4F83463C4F803
:104AA0004053BDE8F087384629461DF0D7FA8146C5
:104AB000D0E7D4F8D001D4F83413C4F8448300F11B
:104AC00000401DF0D3FBD4F8D811064640461DF037
:104AD000CDFB014630461DF0C1FAD4F84813064616
:104AE000D4F8DC011DF0C2FB014630461DF0B6FAD9
:104AF00006460146C4F8306328461DF0ADFA1F4B48
:104B0000D3F8B8101DF0B2FB0746D4F8E801D4F88A
:104B10004013C4F8247300F100401DF0A7FBD4F843
:104B2000EC11054638461DF0A1FB014628461DF054
:104B300095FAD4F828130546D4F8F0011DF096FB39
:104B4000014628461DF08AFAC4F848830546C4F891
:104B50003C0360E708F10048404629461DF042FD4D
:104B600000283FF46FAFCAF83C8345466AE700BFB0
:104B7000F168E388B5F8E43EF098FF1F7487FF1FE3
:104B80002DE9F04F83B006460D9FDDF83080022FEF
:104B90000C461546994600F0E180032F67D0012F9F
:104BA00023D02F68404600211DF01CFD70B1404607
:104BB00039461DF0F9FC30B908F100484046394645
:104BC0001DF010FD10B1C5F8008047462068394639
:104BD0001DF044FAC9F8000033687360236863600D
:104BE0002B686B6003B0BDE8F08F774FD1F804A05D
:104BF000D7F8C400514600F100401DF037FB316882
:104C00008346D7F8C8001DF031FB71680346D7F81A
:104C1000CC0001931DF02AFB019B014618461DF0B4
:104C20001DFA014658461DF019FA20608346D7F850
:104C3000D400696800F100401DF018FBD7F8D810C7
:104C40000346584601931DF011FBD7F8DC1083464C
:104C500050461DF00BFB014658461DF0FFF9019B25
:104C6000014618461DF0FAF9074628609AE7564FA4
:104C7000D1F804B0D7F8D001594600F100401DF03A
:104C8000F5FAA1688246D7F8D4011DF0EFFA014683
:104C900050461DF0E1F931688246D7F8D8011DF081
:104CA000E5FA014650461DF0D9F971688246D7F8F9
:104CB000DC011DF0DBFA014650461DF0CFF9B1686A
:104CC0008246D7F8E0011DF0D1FA014650461DF0AA
:104CD000C5F900218246206040461DF083FCD0B11A
:104CE0003A4940461DF0C2FA034619465046019320
:104CF0001DF078FC019B60B9344908F100401DF0BB
:104D0000B5FA03461946504601931DF04DFC019B30
:104D100008B123609A46D7F8E801696800F10040BD
:104D20001DF0A4FAD7F8EC110346504601931DF08C
:104D30009DFAD7F8F011824658461DF097FA0146C1
:104D400050461DF08BF9019B014618461DF086F96F
:104D500028606368A3607368B36022E71A4FD1F8D4
:104D600004A0D7F8B001514600F100401DF07EFAD2
:104D700031688346D7F8B4011DF078FA71680346AC
:104D8000D7F8B80101931DF071FA019B014618464E
:104D90001DF064F9014658461DF060F92060834615
:104DA000D7F8C001696800F100401DF05FFAD7F83C
:104DB000C4110346584601931DF058FAD7F8C8119C
:104DC0008346504645E700BFF098FF1F9A99993EE9
:104DD0002DE9F04FB44CB4F90030012B89B040F309
:104DE0006D8194F81932002B40F02681D4F8F4013B
:104DF000D4F85813AC4D1DF031F9E36E002682460D
:104E0000002B00F02681A94FA949D7F89880404689
:104E10001DF0CAFB60B140461CF094FDA0A3D3E98D
:104E20000023804689461DF067F8002840F027825D
:104E3000D4F85C1350461DF00FF9D4F86013C4F891
:104E40000002804650461DF007F90546C4F80402EA
:104E5000414630461DF002F9814629463046C4F8E5
:104E600064931DF0FBF8934B94F880808E4D019075
:104E7000C4F86803D3F800B0B8F1000F00F0A281C5
:104E8000D7F888A0594648461DF0E6F851461DF06F
:104E9000EDF9D5F8A430D5F82CB2D5F8A820C5F88E
:104EA000200203F1004302930746594602980392F9
:104EB0001DF0DCF90399064638461DF0D7F9D5F800
:104EC000AC300493014630461DF0C8F8D5F82412E2
:104ED000064604981DF0CAF9014630461DF0BEF89A
:104EE000D5F8B430D5F8B820D5F83412C5F8280272
:104EF00003F1004305930646059806921DF0B6F9A6
:104F00000699814630461DF0B1F9D5F8BC300793BB
:104F1000014648461DF0A2F80799814658461DF003
:104F2000A5F9014648461DF099F88146C5F83002BA
:104F3000E56FDFF874B1284649461DF035FB0028BF
:104F400000F03181CBF83052A946B8F1000F00F0E3
:104F5000D280494630461DF081F8564AC4F84002D6
:104F60005168C4F82472C4F82C62C4F834928346A1
:104F700001981DF071F8014650461DF077F9D4F8FC
:104F800050A2C4F844020746514602981DF06EF93B
:104F90003946064603981DF069F9014630461DF072
:104FA0005DF8D4F84812064604981DF05FF90146F2
:104FB00030461DF053F8D4F85812C4F84C02064697
:104FC00005981DF053F93146814606981DF04EF9BB
:104FD000014648461DF042F85146814607981DF0AB
:104FE00045F9014648461DF039F88146C4F8540297
:104FF000284649461DF0D8FA002843D105F100455E
:10500000284649461DF0EEFA00283BD1B8F1000FC2
:105010003ED0304649461DF021F8274BC4F86402C3
:10502000C4F84872C4F85062C4F85892C3F800B08B
:10503000586009B0BDE8F08F6368012B7FF7D6AEEA
:10504000E36ED4F85463184D4FF0000A002B7FF440
:10505000DAAE314650461DF001F8D5F85C1306462D
:105060001CF0FAFFD5F86013C5F864030446304617
:105070001CF0F2FF104BC5F868031C60586009B0C3
:10508000BDE8F08FC4F85452A946B8F1000FC0D162
:10509000384649461CF0E2FFBFE700BFAFF300808F
:1050A0007B14AE47E17A843FF098FF1F7487FF1F9F
:1050B0000000C44234300020C82F002000252946BB
:1050C000D4F820021DF066FA01460028B1D1A04BA9
:1050D000C4F82452C4F84852C4F82C52C4F85052B0
:1050E000C4F83452C4F858521D605D6009B0BDE880
:1050F000F04F0CF0A9B9494638461CF0AFFF954B6C
:10510000D4F850125A68C4F84002C4F85C22C4F8BB
:105110002472C4F82C62C4F8349283460298009238
:105120001DF0A4F8009A0646114603981DF09EF85B
:10513000014630461CF092FFD4F8601206460498EF
:105140001DF094F8014630461CF088FF06460146E3
:10515000C4F84C6201981CF07FFF014650461DF0D8
:1051600085F8D4F85812C4F84402074605981DF093
:105170007DF83946824606981DF078F8014650467B
:105180001CF06CFFD4F84812824607981DF06EF8A8
:10519000014650461CF062FF009AC4F86022814626
:1051A000C4F8540224E705F1004210464946009233
:1051B0001DF018FA009A00283FF4C7AECBF8302251
:1051C0009146C2E6D5F8A430D5F8A820D5F82C121F
:1051D000C5F838B203F100430293029803921DF020
:1051E00045F80399064658461DF040F8D5F8AC300E
:1051F0000493014630461CF031FFD5F83C120646B8
:1052000004981DF033F8014630461CF027FFD7F80C
:1052100088A0C5F828020646314648461CF01CFF07
:1052200051461DF023F8D5F8B430D5F8B820D5F89C
:105230003412C5F8200203F1004305930746059890
:1052400006921DF013F80699814638461DF00EF8B7
:10525000D5F8BC300793014648461CF0FFFED5F850
:105260002412814607981DF001F8014648461CF0BB
:10527000F5FEC5F83CB28146C5F8300258E632A3C7
:10528000D3E90023404649461CF0B0FB1CF090FED9
:10529000D5F85C13804650461CF0DEFED5F800922F
:1052A000019049461CF0D8FE8346594640461DF001
:1052B0007BF9002832D0494640461CF0CFFEC5F8A5
:1052C00000025046D4F86013DFF88C901CF0C4FE46
:1052D000D4F804A2514605461CF0BEFE834659464A
:1052E00040461DF061F948B1404651461CF0B6FEFB
:1052F000D9F80082C9F804020546A9E508F1004181
:1053000058461DF051F9D0B1414650461CF0A4FE5C
:10531000D9F80082C9F80402054699E508F1004170
:1053200058461DF041F930B1484641461CF094FE04
:10533000C5F80002C5E7019AC5F80022C1E7C9F81F
:105340000452D9F8008283E5FCA9F1D24D62503FA6
:10535000C82F002034300020F098FF1F2DE9F047BF
:10536000994CB4F90030002B40F3BB80012B00F0C6
:10537000B180964BD4F808121868D4F8FC611CF080
:105380006BFE94F898900546B9F1000F40F0B68096
:10539000D4F80401D4F8C412C4F8D05200F100408B
:1053A0001CF064FFD4F80811074628461CF05EFF85
:1053B000014638461CF052FED4F8D4120746D4F801
:1053C0000C011CF053FF014638461CF047FE07460F
:1053D0000146C4F8C07230461CF03EFE7C4BD3F848
:1053E0009C101CF043FF8046D4F81401D4F8CC1272
:1053F000C4F8B88200F100401CF038FFD4F818114E
:10540000064640461CF032FF014630461CF026FEA0
:10541000D4F8BC120646D4F81C011CF027FF014644
:1054200030461CF01BFEC4F8D4520646C4F8C8022D
:10543000D4F89450DFF890A128461CF083FA5EA3BC
:10544000D3E900231CF062FD78B1284631461DF0F7
:10545000ABF8002840F09F8005F100452846314612
:105460001DF0C0F8002840F09680B9F1000F00F060
:105470009980384631461CF0F1FD0546D4F89C90E1
:10548000C4F8D85248461CF05DFA4DA3D3E9002376
:10549000DFF834A11CF03AFD90B1484629461DF0D2
:1054A00083F8002840F0848009F1004029461DF06F
:1054B00099F828B1DAF8305005F10045CAF8D85209
:1054C000C4F8BC82C4F8C472C4F8CC62C4F8F45105
:1054D000BDE8F0870025C4F8D852C4F8F451BDE8FF
:1054E000F0870023C4F8FC31C4F8BC32C4F8C432DD
:1054F000C4F8CC32C4F8F431BDE8F0872946304610
:105500001CF0AAFD324BD3F89C101CF0AFFED4F86F
:10551000C4528046D4F80401C4F8B882294600F188
:1055200000401CF0A3FED4F80811064640461CF0CB
:105530009DFE014630461CF091FDD4F8BC12064693
:10554000D4F80C011CF092FE014630461CF086FD9A
:105550000746D4F81401D4F8CC12C4F8C07200F194
:1055600000401CF083FED4F81811064638461CF0A3
:105570007DFE014630461CF071FDD4F81C11064634
:1055800028461CF073FE014630461CF067FD0646B7
:10559000C4F8C8024CE7CAF8C8522E46B9F1000F49
:1055A0007FF467AF404631461CF058FD054665E77D
:1055B000CAF8D8924D4683E7F168E388B5F8E43E2F
:1055C000FCA9F1D24D62503FF098FF1F0C30002033
:1055D0007487FF1F2DE9F047DFF83C81B8F9009090
:1055E000B9F1000F82B069DD494F4A4B97F8C460AA
:1055F00046BBD3F804A0B9F1010F4BD0D7F8C000D7
:10560000434C5146FEF76CFF50464FF07C511CF066
:10561000E9FF002864D194F8C430D8F8FC42002B8C
:1056200042D0204600211CF0DDFF002838D00022A7
:105630000023C8F86023C8F85C43C8F8583302B0A8
:10564000BDE8F0875868D3F800A01CF07BF9044649
:1056500050460D461CF076F929A3D3E90023CDE985
:105660000001204629461CF0C1F902460B46DDE93F
:1056700000011CF02DFC0028BDD123A3D3E9002399
:10568000204629461CF0B2F91CF092FCB9F1010F3A
:105690008246B3D10023C8F8FC32324600241AB146
:1056A00004F100420024C3E704F100440023C8F8D9
:1056B0005843C8F8F43102B0BDE8F087144998F8AF
:1056C0006C230023C1F8C030C8F8E032C8F8E832D3
:1056D000C8F8F03252B9C8F8583302B0BDE8F087C4
:1056E000002394F8C420C8F8FC32D7E7C8F85C332C
:1056F000C8F8603302B0BDE8F08700BFAFF30080A8
:10570000666666666666E63FCDCCCCCCCCCCE43F24
:105710007487FF1FB8120020F098FF1F2DE9F04793
:10572000DFF8A481B8F90030002B94B071DD98F84F
:10573000F831ABB95D4A98F81930012182F8C510EB
:10574000002B40F0A480D8F80430012B00F09680A4
:105750000023C8F85C33C8F8603314B0BDE8F087A4
:10576000D8F8700300211CF03DFF514A514B00282E
:105770005BD0D2F800A0596850461CF077FD1CF0B1
:10578000E1F80446D8F874030D461CF0DBF8064631
:1057900050460F461CF0D6F80022474B1CF026F965
:1057A00002460B46304639461BF06EFF02460B465A
:1057B000204629461CF044FA1CF0FAFB4FF0000981
:1057C00082463A4CC8F8609394F8C530C8F85CA398
:1057D000002BC2D0394B18681CF0B4F8CDE9000199
:1057E00050461CF0AFF8CDE9020148461CF0AAF87B
:1057F000334ACDE9040107A832211DF0AFFD07A807
:105800000021FCF7A9FC002384F8C53014B0BDE8E2
:10581000F0870023C8F81032C8F86C32C8F8783224
:10582000C8F8803214B0BDE8F087D2F8009019684B
:1058300048461CF01BFD1CF085F80446D8F874039C
:105840000D461CF07FF8064648460F461CF07AF8D5
:105850000022194B1CF0CAF802460B463046394666
:105860001BF012FF02460B46204629461CF0E8F9C1
:105870001CF09EFB4FF0000A8146A2E7D8F81032D8
:10588000C8F85C3303F10043C8F8603365E70D4B9B
:10589000D8F810029968FEF72FFAD8F89032C8F8B5
:1058A0005C3303F10043C8F8603356E77487FF1F89
:1058B000F88DFF1F343000200000E03F6098FF1F8C
:1058C00068AB0200FC2F0020F098FF1FF8B5214CB8
:1058D000B4F90030002B29DD1F4B93F8BC306BB1BD
:1058E0001E4B1B7863BB0023C4F8B4324FF0004654
:1058F0000023C4F86063C4F85C33F8BD184B1B7810
:10590000002BF0D0174BD4F814021968FEF7B8FB3F
:10591000D4F8B4620F4D0027304639461CF062FEC1
:10592000A8B1C5F85C63C5F86073F8BD0023C4F87E
:105930001032C4F89832C4F8A032C4F8A832F8BDC6
:10594000094BD4F814021968FEF79AFBE0E706F158
:105950000046CDE7F098FF1F7487FF1F301300202B
:1059600038130020341300202C1300202DE9F04DB3
:10597000DFF8C081B8F90030012B40F3A380D8F8DC
:1059800078031BF0DFFF664B82468B46D868D8F859
:1059900068111CF06BFC634BD8F86C110446186856
:1059A0001CF064FC014620461CF058FB1BF0CAFFAB
:1059B0005D4B04460D46186859681CF04FFB1BF000
:1059C000C1FF0022594B1CF011F80646D8F8F4012B
:1059D0000F461BF0B7FF02460B46304639461BF018
:1059E00051FE0646D8F878010F461BF0ABFF024681
:1059F0000B46304639461BF0F9FF02460B4620465F
:105A000029461BF041FE4A4B04460D46186859686A
:105A10001CF024FB1BF096FF0022444B1BF0E6FF1A
:105A20000646D8F87C030F461BF08CFF02460B4657
:105A3000304639461BF026FE0646D8F8FC010F46D4
:105A40001BF080FF02460B46304639461BF01AFE1B
:105A50000646D8F870010F461BF074FF02460B464D
:105A6000304639461BF0C2FF02460B462046294607
:105A70001BF00AFE04460D46D8F85403D8F81C1251
:105A80001CF0EAFAD8F874111CF0F0FB1BF05AFF76
:105A900002460B46204629461BF0F6FD1EA3D3E91D
:105AA00000231BF0A3FF0B460246594650461BF04D
:105AB000EBFD1CF07DFA0346C8F85433C8F8783380
:105AC000BDE8F08D1A4B596818681CF0C7FA4FF002
:105AD0007C511CF0CBFB144BC8F87C0300245968A4
